{"abi":[{"type":"constructor","inputs":[{"name":"_token0","type":"address","internalType":"address"},{"name":"_token1","type":"address","internalType":"address"},{"name":"_amount0","type":"uint256","internalType":"uint256"},{"name":"_amount1","type":"uint256","internalType":"uint256"}],"stateMutability":"nonpayable"},{"type":"function","name":"addLiquidity","inputs":[{"name":"amount0","type":"uint256","internalType":"uint256"},{"name":"amount1","type":"uint256","internalType":"uint256"}],"outputs":[],"stateMutability":"nonpayable"},{"type":"function","name":"currentSqrtPriceX96","inputs":[],"outputs":[{"name":"","type":"uint160","internalType":"uint160"}],"stateMutability":"view"},{"type":"function","name":"getPrice","inputs":[],"outputs":[{"name":"","type":"uint256","internalType":"uint256"}],"stateMutability":"view"},{"type":"function","name":"reserve0","inputs":[],"outputs":[{"name":"","type":"uint256","internalType":"uint256"}],"stateMutability":"view"},{"type":"function","name":"reserve1","inputs":[],"outputs":[{"name":"","type":"uint256","internalType":"uint256"}],"stateMutability":"view"},{"type":"function","name":"swap","inputs":[{"name":"zeroForOne","type":"bool","internalType":"bool"},{"name":"amountIn","type":"uint256","internalType":"uint256"},{"name":"recipient","type":"address","internalType":"address"}],"outputs":[{"name":"amountOut","type":"uint256","internalType":"uint256"}],"stateMutability":"nonpayable"},{"type":"function","name":"token0","inputs":[],"outputs":[{"name":"","type":"address","internalType":"address"}],"stateMutability":"view"},{"type":"function","name":"token1","inputs":[],"outputs":[{"name":"","type":"address","internalType":"address"}],"stateMutability":"view"},{"type":"event","name":"Swap","inputs":[{"name":"sender","type":"address","indexed":true,"internalType":"address"},{"name":"recipient","type":"address","indexed":true,"internalType":"address"},{"name":"amount0","type":"int256","indexed":false,"internalType":"int256"},{"name":"amount1","type":"int256","indexed":false,"internalType":"int256"},{"name":"sqrtPriceX96","type":"uint160","indexed":false,"internalType":"uint160"},{"name":"liquidity","type":"uint128","indexed":false,"internalType":"uint128"},{"name":"tick","type":"int24","indexed":false,"internalType":"int24"}],"anonymous":false}],"bytecode":{"object":"0x60c060405234801561000f575f80fd5b50604051610ed1380380610ed183398101604081905261002e91610368565b826001600160a01b0316846001600160a01b0316106100ab5760405162461bcd60e51b815260206004820152602e60248201527f4d6f636b5633506f6f6c3a20746f6b656e30206d757374206265203c20746f6b60448201526d656e31206279206164647265737360901b60648201526084015b60405180910390fd5b5f821180156100b957505f81115b6101055760405162461bcd60e51b815260206004820152601c60248201527f4d6f636b5633506f6f6c3a207a65726f207365656420616d6f756e740000000060448201526064016100a2565b6001600160a01b03848116608081905290841660a0526040516323b872dd60e01b8152336004820152306024820152604481018490526323b872dd906064016020604051808303815f875af1158015610160573d5f803e3d5ffd5b505050506040513d601f19601f8201168201806040525081019061018491906103a8565b506040516323b872dd60e01b8152336004820152306024820152604481018290526001600160a01b038416906323b872dd906064016020604051808303815f875af11580156101d5573d5f803e3d5ffd5b505050506040513d601f19601f820116820180604052508101906101f991906103a8565b505f829055600181905561020d8282610237565b600280546001600160a01b0319166001600160a01b03929092169190911790555061042492505050565b5f8061025361024e84670de0b6b3a76400006103db565b6102e9565b90505f61026b61024e86670de0b6b3a76400006103db565b90505f81116102bc5760405162461bcd60e51b815260206004820152601860248201527f4d6f636b5633506f6f6c3a207a65726f2072657365727665000000000000000060448201526064016100a2565b806102d4836c010000000000000000000000006103db565b6102de91906103f2565b925050505b92915050565b5f815f036102f857505f919050565b5f6002610306846001610411565b61031091906103f2565b9050825b8082101561034657508060028161032b81876103f2565b6103359190610411565b61033f91906103f2565b9150610314565b9392505050565b80516001600160a01b0381168114610363575f80fd5b919050565b5f805f806080858703121561037b575f80fd5b6103848561034d565b93506103926020860161034d565b6040860151606090960151949790965092505050565b5f602082840312156103b8575f80fd5b81518015158114610346575f80fd5b634e487b7160e01b5f52601160045260245ffd5b80820281158282048414176102e3576102e36103c7565b5f8261040c57634e487b7160e01b5f52601260045260245ffd5b500490565b808201808211156102e3576102e36103c7565b60805160a051610a6361046e5f395f8181610134015281816102fc015281816103a7015261071801525f8181608e015281816101e7015281816104bc01526106830152610a635ff3fe608060405234801561000f575f80fd5b5060043610610085575f3560e01c80635b56e038116100585780635b56e038146100ff57806398d5fdca146101125780639cd441da1461011a578063d21220a71461012f575f80fd5b80630dfe168114610089578063443cb4bc146100cd57806347fd03d9146100e35780635a76f25e146100f6575b5f80fd5b6100b07f000000000000000000000000000000000000000000000000000000000000000081565b6040516001600160a01b0390911681526020015b60405180910390f35b6100d55f5481565b6040519081526020016100c4565b6002546100b0906001600160a01b031681565b6100d560015481565b6100d561010d36600461091e565b610156565b6100d5610627565b61012d610128366004610968565b610661565b005b6100b07f000000000000000000000000000000000000000000000000000000000000000081565b5f8083116101ab5760405162461bcd60e51b815260206004820152601960248201527f4d6f636b5633506f6f6c3a207a65726f20616d6f756e74496e0000000000000060448201526064015b60405180910390fd5b5f6001545f546101bb919061099c565b90505f808615610385576040516323b872dd60e01b8152336004820152306024820152604481018790527f00000000000000000000000000000000000000000000000000000000000000006001600160a01b0316906323b872dd906064016020604051808303815f875af1158015610235573d5f803e3d5ffd5b505050506040513d601f19601f8201168201806040525081019061025991906109b3565b505f865f5461026891906109ce565b90505f61027582866109e1565b9050806001546102859190610a00565b95505f86116102d65760405162461bcd60e51b815260206004820152601f60248201527f4d6f636b5633506f6f6c3a20696e73756666696369656e74206f75747075740060448201526064016101a2565b60405163a9059cbb60e01b81526001600160a01b038881166004830152602482018890527f0000000000000000000000000000000000000000000000000000000000000000169063a9059cbb906044016020604051808303815f875af1158015610342573d5f803e3d5ffd5b505050506040513d601f19601f8201168201806040525081019061036691906109b3565b505f829055600181905587935061037c86610a13565b92505050610541565b6040516323b872dd60e01b8152336004820152306024820152604481018790527f00000000000000000000000000000000000000000000000000000000000000006001600160a01b0316906323b872dd906064016020604051808303815f875af11580156103f5573d5f803e3d5ffd5b505050506040513d601f19601f8201168201806040525081019061041991906109b3565b505f8660015461042991906109ce565b90505f61043682866109e1565b9050805f546104459190610a00565b95505f86116104965760405162461bcd60e51b815260206004820152601f60248201527f4d6f636b5633506f6f6c3a20696e73756666696369656e74206f75747075740060448201526064016101a2565b60405163a9059cbb60e01b81526001600160a01b038881166004830152602482018890527f0000000000000000000000000000000000000000000000000000000000000000169063a9059cbb906044016020604051808303815f875af1158015610502573d5f803e3d5ffd5b505050506040513d601f19601f8201168201806040525081019061052691906109b3565b505f819055600182905561053986610a13565b935087925050505b61054e5f546001546107f8565b6002805473ffffffffffffffffffffffffffffffffffffffff19166001600160a01b039283169081179091555f549187169133917fc42079f94a6350d7e6235f29174924f928cc2ac818eb64fed8004e115fbcca6791869186916fffffffffffffffffffffffffffffffff106105c5575f546105d7565b6fffffffffffffffffffffffffffffffff5b6040805194855260208501939093526001600160a01b0391909116838301526fffffffffffffffffffffffffffffffff1660608301525f6080830152519081900360a00190a35050509392505050565b6002545f906001600160a01b0381169060201c6fffffffffffffffffffffffffffffffff166080610658828061099c565b901c9250505090565b6040516323b872dd60e01b8152336004820152306024820152604481018390527f00000000000000000000000000000000000000000000000000000000000000006001600160a01b0316906323b872dd906064016020604051808303815f875af11580156106d1573d5f803e3d5ffd5b505050506040513d601f19601f820116820180604052508101906106f591906109b3565b506040516323b872dd60e01b8152336004820152306024820152604481018290527f00000000000000000000000000000000000000000000000000000000000000006001600160a01b0316906323b872dd906064016020604051808303815f875af1158015610766573d5f803e3d5ffd5b505050506040513d601f19601f8201168201806040525081019061078a91906109b3565b50815f8082825461079b91906109ce565b925050819055508060015f8282546107b391906109ce565b925050819055506107c75f546001546107f8565b6002805473ffffffffffffffffffffffffffffffffffffffff19166001600160a01b03929092169190911790555050565b5f8061081461080f84670de0b6b3a764000061099c565b6108aa565b90505f61082c61080f86670de0b6b3a764000061099c565b90505f811161087d5760405162461bcd60e51b815260206004820152601860248201527f4d6f636b5633506f6f6c3a207a65726f2072657365727665000000000000000060448201526064016101a2565b80610895836c0100000000000000000000000061099c565b61089f91906109e1565b925050505b92915050565b5f815f036108b957505f919050565b5f60026108c78460016109ce565b6108d191906109e1565b9050825b808210156109075750806002816108ec81876109e1565b6108f691906109ce565b61090091906109e1565b91506108d5565b9392505050565b801515811461091b575f80fd5b50565b5f805f60608486031215610930575f80fd5b833561093b8161090e565b92506020840135915060408401356001600160a01b038116811461095d575f80fd5b809150509250925092565b5f8060408385031215610979575f80fd5b50508035926020909101359150565b634e487b7160e01b5f52601160045260245ffd5b80820281158282048414176108a4576108a4610988565b5f602082840312156109c3575f80fd5b81516109078161090e565b808201808211156108a4576108a4610988565b5f826109fb57634e487b7160e01b5f52601260045260245ffd5b500490565b818103818111156108a4576108a4610988565b5f600160ff1b8201610a2757610a27610988565b505f039056fea26469706673582212207b14940d5b9578696f9c7c0c8e4731a3b8fc9e003109dd8332e906db78b4d1c764736f6c634300081a0033","linkReferences":{}},"methodIdentifiers":{"addLiquidity(uint256,uint256)":"9cd441da","currentSqrtPriceX96()":"47fd03d9","getPrice()":"98d5fdca","reserve0()":"443cb4bc","reserve1()":"5a76f25e","swap(bool,uint256,address)":"5b56e038","token0()":"0dfe1681","token1()":"d21220a7"},"id":99}