{"abi":[{"type":"constructor","inputs":[{"name":"_manager","type":"address","internalType":"contract IPoolManager"}],"stateMutability":"nonpayable"},{"type":"function","name":"manager","inputs":[],"outputs":[{"name":"","type":"address","internalType":"contract IPoolManager"}],"stateMutability":"view"},{"type":"function","name":"swap","inputs":[{"name":"key","type":"tuple","internalType":"struct PoolKey","components":[{"name":"currency0","type":"address","internalType":"Currency"},{"name":"currency1","type":"address","internalType":"Currency"},{"name":"fee","type":"uint24","internalType":"uint24"},{"name":"tickSpacing","type":"int24","internalType":"int24"},{"name":"hooks","type":"address","internalType":"contract IHooks"}]},{"name":"params","type":"tuple","internalType":"struct SwapParams","components":[{"name":"zeroForOne","type":"bool","internalType":"bool"},{"name":"amountSpecified","type":"int256","internalType":"int256"},{"name":"sqrtPriceLimitX96","type":"uint160","internalType":"uint160"}]},{"name":"testSettings","type":"tuple","internalType":"struct PoolSwapTest.TestSettings","components":[{"name":"takeClaims","type":"bool","internalType":"bool"},{"name":"settleUsingBurn","type":"bool","internalType":"bool"}]},{"name":"hookData","type":"bytes","internalType":"bytes"}],"outputs":[{"name":"delta","type":"int256","internalType":"BalanceDelta"}],"stateMutability":"payable"},{"type":"function","name":"unlockCallback","inputs":[{"name":"rawData","type":"bytes","internalType":"bytes"}],"outputs":[{"name":"","type":"bytes","internalType":"bytes"}],"stateMutability":"nonpayable"},{"type":"error","name":"NoSwapOccurred","inputs":[]}],"bytecode":{"object":"0x60a0604052348015600e575f80fd5b50604051611921380380611921833981016040819052602b91603b565b6001600160a01b03166080526066565b5f60208284031215604a575f80fd5b81516001600160a01b0381168114605f575f80fd5b9392505050565b6080516118666100bb5f395f8181606e0152818160d7015281816101ee01528181610300015281816109bb01528181610a1401528181610a9101528181610ae501528181610c030152610c3601526118665ff3fe608060405260043610610033575f3560e01c80632229d0b414610037578063481c6a751461005d57806391dd7346146100a8575b5f80fd5b61004a61004536600461140f565b6100d4565b6040519081526020015b60405180910390f35b348015610068575f80fd5b506100907f000000000000000000000000000000000000000000000000000000000000000081565b6040516001600160a01b039091168152602001610054565b3480156100b3575f80fd5b506100c76100c2366004611480565b6101e1565b604051610054919061151c565b5f7f00000000000000000000000000000000000000000000000000000000000000006001600160a01b03166348c894916040518060a00160405280336001600160a01b03168152602001868152602001888152602001878152602001858152506040516020016101449190611535565b6040516020818303038152906040526040518263ffffffff1660e01b815260040161016f919061151c565b5f604051808303815f875af115801561018a573d5f803e3d5ffd5b505050506040513d5f823e601f3d908101601f191682016040526101b19190810190611615565b8060200190518101906101c4919061168a565b90504780156101d8576101d85f3383610b37565b50949350505050565b6060336001600160a01b037f00000000000000000000000000000000000000000000000000000000000000001614610217575f80fd5b5f610224838501856116a1565b90505f61023c82604001515f0151835f015130610bdc565b925050505f610257836040015160200151845f015130610bdc565b92505050815f146102af5760405162461bcd60e51b815260206004820152601e60248201527f64656c74614265666f726530206973206e6f7420657175616c20746f2030000060448201526064015b60405180910390fd5b80156102fd5760405162461bcd60e51b815260206004820152601e60248201527f64656c74614265666f726531206973206e6f7420657175616c20746f2030000060448201526064016102a6565b5f7f00000000000000000000000000000000000000000000000000000000000000006001600160a01b031663f3cd914c8560400151866060015187608001516040518463ffffffff1660e01b815260040161035a93929190611759565b6020604051808303815f875af1158015610376573d5f803e3d5ffd5b505050506040513d601f19601f8201168201806040525081019061039a919061168a565b90505f6103b285604001515f0151865f015130610bdc565b925050505f6103cd866040015160200151875f015130610bdc565b9250505085606001515f0151156106c7575f86606001516020015112156105565785606001516020015182121561047c5760405162461bcd60e51b815260206004820152604760248201527f64656c7461416674657230206973206e6f742067726561746572207468616e2060448201527f6f7220657175616c20746f20646174612e706172616d732e616d6f756e7453706064820152661958da599a595960ca1b608482015260a4016102a6565b816104878460801d90565b600f0b146104eb5760405162461bcd60e51b815260206004820152602b60248201527f64656c74612e616d6f756e74302829206973206e6f7420657175616c20746f2060448201526a064656c74614166746572360ac1b60648201526084016102a6565b5f8112156105515760405162461bcd60e51b815260206004820152602d60248201527f64656c7461416674657231206973206e6f742067726561746572207468616e2060448201526c06f7220657175616c20746f203609c1b60648201526084016102a6565b6109ab565b5f8213156105cc5760405162461bcd60e51b815260206004820152602d60248201527f64656c7461416674657230206973206e6f74206c657373207468616e206f722060448201527f657175616c20746f207a65726f0000000000000000000000000000000000000060648201526084016102a6565b806105d784600f0b90565b600f0b1461063b5760405162461bcd60e51b815260206004820152602b60248201527f64656c74612e616d6f756e74312829206973206e6f7420657175616c20746f2060448201526a64656c746141667465723160a81b60648201526084016102a6565b8560600151602001518113156105515760405162461bcd60e51b8152602060048201526044602482018190527f64656c7461416674657231206973206e6f74206c657373207468616e206f7220908201527f657175616c20746f20646174612e706172616d732e616d6f756e745370656369606482015263199a595960e21b608482015260a4016102a6565b5f866060015160200151121561083a578560600151602001518112156107655760405162461bcd60e51b815260206004820152604760248201527f64656c7461416674657231206973206e6f742067726561746572207468616e2060448201527f6f7220657175616c20746f20646174612e706172616d732e616d6f756e7453706064820152661958da599a595960ca1b608482015260a4016102a6565b8061077084600f0b90565b600f0b146107d45760405162461bcd60e51b815260206004820152602b60248201527f64656c74612e616d6f756e74312829206973206e6f7420657175616c20746f2060448201526a64656c746141667465723160a81b60648201526084016102a6565b5f8212156105515760405162461bcd60e51b815260206004820152602d60248201527f64656c7461416674657230206973206e6f742067726561746572207468616e2060448201526c06f7220657175616c20746f203609c1b60648201526084016102a6565b5f8113156108b05760405162461bcd60e51b815260206004820152602a60248201527f64656c7461416674657231206973206e6f74206c657373207468616e206f722060448201527f657175616c20746f20300000000000000000000000000000000000000000000060648201526084016102a6565b816108bb8460801d90565b600f0b1461091f5760405162461bcd60e51b815260206004820152602b60248201527f64656c74612e616d6f756e74302829206973206e6f7420657175616c20746f2060448201526a064656c74614166746572360ac1b60648201526084016102a6565b8560600151602001518213156109ab5760405162461bcd60e51b8152602060048201526044602482018190527f64656c7461416674657230206973206e6f74206c657373207468616e206f7220908201527f657175616c20746f20646174612e706172616d732e616d6f756e745370656369606482015263199a595960e21b608482015260a4016102a6565b5f821215610a04578551610a04907f0000000000000000000000000000000000000000000000000000000000000000906109e4856117ef565b6020808b0151015160408b0151516001600160a01b031693929190610c68565b5f811215610a69578551610a69907f000000000000000000000000000000000000000000000000000000000000000090610a3d846117ef565b8960200151602001518a60400151602001516001600160a01b0316610c6890949392919063ffffffff16565b5f821315610ab9578551602087015151604088015151610ab9926001600160a01b03909116917f000000000000000000000000000000000000000000000000000000000000000091908690610f34565b5f811315610b0d57855160208088015151604089015190910151610b0d926001600160a01b03909116917f000000000000000000000000000000000000000000000000000000000000000091908590610f34565b60408051602081018590520160405160208183030381529060405296505050505050505b92915050565b5f6001600160a01b038416610b6c575f805f8085875af1905080610b6757610b67835f633d2cec6f60e21b611006565b610bd6565b60405163a9059cbb60e01b81526001600160a01b038416600482015282602482015260205f6044835f895af13d15601f3d1160015f511416171691505f81525f60208201525f60408201525080610bd657610bd68463a9059cbb60e01b633c9fd93960e21b611006565b50505050565b5f8080610bf26001600160a01b0387168661107e565b9250610c276001600160a01b0387167f000000000000000000000000000000000000000000000000000000000000000061107e565b9150610c5d6001600160a01b037f000000000000000000000000000000000000000000000000000000000000000016858861110d565b905093509350939050565b8015610cfd57836001600160a01b031663f5298aca84610c97886001600160a01b03166001600160a01b031690565b6040516001600160e01b031960e085901b1681526001600160a01b0390921660048301526024820152604481018590526064015b5f604051808303815f87803b158015610ce2575f80fd5b505af1158015610cf4573d5f803e3d5ffd5b50505050610f2d565b6001600160a01b038516610d7457836001600160a01b03166311da60b4836040518263ffffffff1660e01b815260040160206040518083038185885af1158015610d49573d5f803e3d5ffd5b50505050506040513d601f19601f82011682018060405250810190610d6e919061168a565b50610f2d565b604051632961046560e21b81526001600160a01b03868116600483015285169063a5841194906024015f604051808303815f87803b158015610db4575f80fd5b505af1158015610dc6573d5f803e3d5ffd5b505050506001600160a01b0383163014610e58576040516323b872dd60e01b81526001600160a01b0384811660048301528581166024830152604482018490528616906323b872dd906064016020604051808303815f875af1158015610e2e573d5f803e3d5ffd5b505050506040513d601f19601f82011682018060405250810190610e529190611815565b50610eca565b60405163a9059cbb60e01b81526001600160a01b0385811660048301526024820184905286169063a9059cbb906044016020604051808303815f875af1158015610ea4573d5f803e3d5ffd5b505050506040513d601f19601f82011682018060405250810190610ec89190611815565b505b836001600160a01b03166311da60b46040518163ffffffff1660e01b81526004016020604051808303815f875af1158015610f07573d5f803e3d5ffd5b505050506040513d601f19601f82011682018060405250810190610f2b919061168a565b505b5050505050565b80610f7657604051630b0d9c0960e01b81526001600160a01b038681166004830152848116602483015260448201849052851690630b0d9c0990606401610ccb565b836001600160a01b031663156e29f684610f9f886001600160a01b03166001600160a01b031690565b6040516001600160e01b031960e085901b1681526001600160a01b0390921660048301526024820152604481018590526064015f604051808303815f87803b158015610fe9575f80fd5b505af1158015610ffb573d5f803e3d5ffd5b505050505050505050565b6040516390bfb86560e01b8082526001600160a01b03851660048301526001600160e01b031984166024830152608060448301526020601f3d018190040260a0810160648401523d608484015290913d5f60a483013e60048260a4018201526001600160e01b031984168260c4018201528160e40181fd5b5f6001600160a01b03831661109e57506001600160a01b03811631610b31565b6040516370a0823160e01b81526001600160a01b0383811660048301528416906370a0823190602401602060405180830381865afa1580156110e2573d5f803e3d5ffd5b505050506040513d601f19601f82011682018060405250810190611106919061168a565b9050610b31565b5f806001600160a01b0384165f526001600160a01b03831660205260405f209050846001600160a01b031663f135baaa826040518263ffffffff1660e01b815260040161115c91815260200190565b602060405180830381865afa158015611177573d5f803e3d5ffd5b505050506040513d601f19601f8201168201806040525081019061119b919061168a565b95945050505050565b634e487b7160e01b5f52604160045260245ffd5b60405160a0810167ffffffffffffffff811182821017156111db576111db6111a4565b60405290565b604051601f8201601f1916810167ffffffffffffffff8111828210171561120a5761120a6111a4565b604052919050565b6001600160a01b0381168114611226575f80fd5b50565b803561123481611212565b919050565b5f60a08284031215611249575f80fd5b6112516111b8565b9050813561125e81611212565b8152602082013561126e81611212565b6020820152604082013562ffffff81168114611288575f80fd5b60408201526060820135600281900b81146112a1575f80fd5b60608201526112b260808301611229565b608082015292915050565b8015158114611226575f80fd5b5f606082840312156112da575f80fd5b6040516060810167ffffffffffffffff811182821017156112fd576112fd6111a4565b604052905080823561130e816112bd565b815260208381013590820152604083013561132881611212565b6040919091015292915050565b5f60408284031215611345575f80fd5b6040805190810167ffffffffffffffff81118282101715611368576113686111a4565b6040529050808235611379816112bd565b81526020830135611389816112bd565b6020919091015292915050565b5f67ffffffffffffffff8211156113af576113af6111a4565b50601f01601f191660200190565b5f82601f8301126113cc575f80fd5b81356113df6113da82611396565b6111e1565b8181528460208386010111156113f3575f80fd5b816020850160208301375f918101602001919091529392505050565b5f805f806101608587031215611423575f80fd5b61142d8686611239565b935061143c8660a087016112ca565b925061144c866101008701611335565b915061014085013567ffffffffffffffff811115611468575f80fd5b611474878288016113bd565b91505092959194509250565b5f8060208385031215611491575f80fd5b823567ffffffffffffffff8111156114a7575f80fd5b8301601f810185136114b7575f80fd5b803567ffffffffffffffff8111156114cd575f80fd5b8560208284010111156114de575f80fd5b6020919091019590945092505050565b5f81518084528060208401602086015e5f602082860101526020601f19601f83011685010191505092915050565b602081525f61152e60208301846114ee565b9392505050565b602081526001600160a01b0382511660208201525f60208301518051151560408401526020810151151560608401525060408301516115c560808401826001600160a01b0381511682526001600160a01b03602082015116602083015262ffffff6040820151166040830152606081015160020b60608301526001600160a01b0360808201511660808301525050565b506060830151805115156101208401526020810151610140840152604001516001600160a01b031661016083015260808301516101808084015261160d6101a08401826114ee565b949350505050565b5f60208284031215611625575f80fd5b815167ffffffffffffffff81111561163b575f80fd5b8201601f8101841361164b575f80fd5b80516116596113da82611396565b81815285602083850101111561166d575f80fd5b8160208401602083015e5f91810160200191909152949350505050565b5f6020828403121561169a575f80fd5b5051919050565b5f602082840312156116b1575f80fd5b813567ffffffffffffffff8111156116c7575f80fd5b820161018081850312156116d9575f80fd5b6116e16111b8565b81356116ec81611212565b81526116fb8560208401611335565b602082015261170d8560608401611239565b60408201526117208561010084016112ca565b606082015261016082013567ffffffffffffffff81111561173f575f80fd5b61174b868285016113bd565b608083015250949350505050565b6117b181856001600160a01b0381511682526001600160a01b03602082015116602083015262ffffff6040820151166040830152606081015160020b60608301526001600160a01b0360808201511660808301525050565b8251151560a0820152602083015160c082015260408301516001600160a01b031660e08201526101206101008201525f61119b6101208301846114ee565b5f600160ff1b820161180f57634e487b7160e01b5f52601160045260245ffd5b505f0390565b5f60208284031215611825575f80fd5b815161152e816112bd56fea264697066735822122093a7e30888f4111f14afd7c47311e0737c8fce7c33dcb09456fceed28038039164736f6c634300081a0033","linkReferences":{}},"methodIdentifiers":{"manager()":"481c6a75","swap((address,address,uint24,int24,address),(bool,int256,uint160),(bool,bool),bytes)":"2229d0b4","unlockCallback(bytes)":"91dd7346"},"id":76}