{"abi":[{"type":"constructor","inputs":[{"name":"_callbackProxy","type":"address","internalType":"address"},{"name":"_hook","type":"address","internalType":"address"},{"name":"_loyaltyRegistry","type":"address","internalType":"address"}],"stateMutability":"nonpayable"},{"type":"receive","stateMutability":"payable"},{"type":"function","name":"coverDebt","inputs":[],"outputs":[],"stateMutability":"nonpayable"},{"type":"function","name":"hook","inputs":[],"outputs":[{"name":"","type":"address","internalType":"contract IArbShieldHook"}],"stateMutability":"view"},{"type":"function","name":"loyaltyRegistry","inputs":[],"outputs":[{"name":"","type":"address","internalType":"contract ILoyaltyRegistryCallback"}],"stateMutability":"view"},{"type":"function","name":"pay","inputs":[{"name":"amount","type":"uint256","internalType":"uint256"}],"outputs":[],"stateMutability":"nonpayable"},{"type":"function","name":"recordLPActivity","inputs":[{"name":"_rvm_id","type":"address","internalType":"address"},{"name":"lp","type":"address","internalType":"address"}],"outputs":[],"stateMutability":"nonpayable"},{"type":"function","name":"resetToBaseFee","inputs":[{"name":"_rvm_id","type":"address","internalType":"address"}],"outputs":[],"stateMutability":"nonpayable"},{"type":"function","name":"updateDivergenceFee","inputs":[{"name":"_rvm_id","type":"address","internalType":"address"},{"name":"newFee","type":"uint24","internalType":"uint24"},{"name":"divergenceBps","type":"uint256","internalType":"uint256"}],"outputs":[],"stateMutability":"nonpayable"},{"type":"event","name":"DivergenceFeeRelayed","inputs":[{"name":"newFee","type":"uint24","indexed":false,"internalType":"uint24"},{"name":"divergenceBps","type":"uint256","indexed":false,"internalType":"uint256"}],"anonymous":false},{"type":"event","name":"FeeResetRelayed","inputs":[],"anonymous":false},{"type":"event","name":"LPActivityRelayed","inputs":[{"name":"lp","type":"address","indexed":true,"internalType":"address"}],"anonymous":false}],"bytecode":{"object":"0x60c060405234801561000f575f80fd5b5060405161093a38038061093a83398101604081905261002e916100a3565b600280546001600160a01b031990811633179091555f80546001600160a01b038616921682178155908152600160208190526040909120805460ff191690911790556001600160a01b039182166080521660a052506100e3565b80516001600160a01b038116811461009e575f80fd5b919050565b5f805f606084860312156100b5575f80fd5b6100be84610088565b92506100cc60208501610088565b91506100da60408501610088565b90509250925092565b60805160a0516108226101185f395f818161016e015261022701525f818160c2015281816103cf01526104e801526108225ff3fe608060405260043610610071575f3560e01c80638b4660f61161004c5780638b4660f614610100578063b01766891461011f578063c290d6911461013e578063dbb6eb161461015d575f80fd5b8063566642561461007c5780637a90b9901461009d5780637f5a7c7b146100b1575f80fd5b3661007857005b5f80fd5b348015610087575f80fd5b5061009b610096366004610714565b610190565b005b3480156100a8575f80fd5b5061009b6102b6565b3480156100bc575f80fd5b506100e47f000000000000000000000000000000000000000000000000000000000000000081565b6040516001600160a01b03909116815260200160405180910390f35b34801561010b575f80fd5b5061009b61011a366004610745565b61033b565b34801561012a575f80fd5b5061009b610139366004610788565b610473565b348015610149575f80fd5b5061009b6101583660046107a8565b610580565b348015610168575f80fd5b506100e47f000000000000000000000000000000000000000000000000000000000000000081565b60025482906001600160a01b031615806101b757506002546001600160a01b038281169116145b6102085760405162461bcd60e51b815260206004820152601660248201527f417574686f72697a65642052564d204944206f6e6c790000000000000000000060448201526064015b60405180910390fd5b604051634a6e5db560e01b81526001600160a01b0383811660048301527f00000000000000000000000000000000000000000000000000000000000000001690634a6e5db5906024015f604051808303815f87803b158015610268575f80fd5b505af115801561027a573d5f803e3d5ffd5b50506040516001600160a01b03851692507f2a7aa75335f0d2228faf22ac7156f3770cf5efef9f5b488f37129291d4ae32ba91505f90a2505050565b5f80546040516326db15bb60e21b81523060048201526001600160a01b0390911690639b6c56ec90602401602060405180830381865afa1580156102fc573d5f803e3d5ffd5b505050506040513d601f19601f8201168201806040525081019061032091906107bf565b5f54909150610338906001600160a01b0316826105e4565b50565b60025483906001600160a01b0316158061036257506002546001600160a01b038281169116145b6103ae5760405162461bcd60e51b815260206004820152601660248201527f417574686f72697a65642052564d204944206f6e6c790000000000000000000060448201526064016101ff565b60405163847708af60e01b815262ffffff84166004820152602481018390527f00000000000000000000000000000000000000000000000000000000000000006001600160a01b03169063847708af906044015f604051808303815f87803b158015610418575f80fd5b505af115801561042a573d5f803e3d5ffd5b50506040805162ffffff87168152602081018690527f896cd1ce8b3d49f6d30dbb8862a3d1baa9562189bd82771b7db49193c28d871a935001905060405180910390a150505050565b60025481906001600160a01b0316158061049a57506002546001600160a01b038281169116145b6104e65760405162461bcd60e51b815260206004820152601660248201527f417574686f72697a65642052564d204944206f6e6c790000000000000000000060448201526064016101ff565b7f00000000000000000000000000000000000000000000000000000000000000006001600160a01b031663dd8c18a26040518163ffffffff1660e01b81526004015f604051808303815f87803b15801561053e575f80fd5b505af1158015610550573d5f803e3d5ffd5b50506040517f6f0f0652beab0741c7a1111ce603b6bd968487dc62c07314c1074665178e253392505f9150a15050565b335f9081526001602052604090205460ff166105de5760405162461bcd60e51b815260206004820152601660248201527f417574686f72697a65642073656e646572206f6e6c790000000000000000000060448201526064016101ff565b61033833825b804710156106345760405162461bcd60e51b815260206004820152601260248201527f496e73756666696369656e742066756e6473000000000000000000000000000060448201526064016101ff565b80156106f557604080515f808252602082019092526001600160a01b03841690839060405161066391906107d6565b5f6040518083038185875af1925050503d805f811461069d576040519150601f19603f3d011682016040523d82523d5f602084013e6106a2565b606091505b50509050806106f35760405162461bcd60e51b815260206004820152600f60248201527f5472616e73666572206661696c6564000000000000000000000000000000000060448201526064016101ff565b505b5050565b80356001600160a01b038116811461070f575f80fd5b919050565b5f8060408385031215610725575f80fd5b61072e836106f9565b915061073c602084016106f9565b90509250929050565b5f805f60608486031215610757575f80fd5b610760846106f9565b9250602084013562ffffff81168114610777575f80fd5b929592945050506040919091013590565b5f60208284031215610798575f80fd5b6107a1826106f9565b9392505050565b5f602082840312156107b8575f80fd5b5035919050565b5f602082840312156107cf575f80fd5b5051919050565b5f82518060208501845e5f92019182525091905056fea26469706673582212201c98a461b817df505e2e3fc547b8d43ae4abab133526e757d3ba1482f7658c3e64736f6c634300081a0033","linkReferences":{}},"methodIdentifiers":{"coverDebt()":"7a90b990","hook()":"7f5a7c7b","loyaltyRegistry()":"dbb6eb16","pay(uint256)":"c290d691","recordLPActivity(address,address)":"56664256","resetToBaseFee(address)":"b0176689","updateDivergenceFee(address,uint24,uint256)":"8b4660f6"},"id":95}