{"abi":[{"type":"constructor","inputs":[],"stateMutability":"nonpayable"},{"type":"function","name":"BRONZE_DISCOUNT","inputs":[],"outputs":[{"name":"","type":"uint24","internalType":"uint24"}],"stateMutability":"view"},{"type":"function","name":"BRONZE_THRESHOLD","inputs":[],"outputs":[{"name":"","type":"uint256","internalType":"uint256"}],"stateMutability":"view"},{"type":"function","name":"GOLD_DISCOUNT","inputs":[],"outputs":[{"name":"","type":"uint24","internalType":"uint24"}],"stateMutability":"view"},{"type":"function","name":"GOLD_THRESHOLD","inputs":[],"outputs":[{"name":"","type":"uint256","internalType":"uint256"}],"stateMutability":"view"},{"type":"function","name":"SILVER_DISCOUNT","inputs":[],"outputs":[{"name":"","type":"uint24","internalType":"uint24"}],"stateMutability":"view"},{"type":"function","name":"SILVER_THRESHOLD","inputs":[],"outputs":[{"name":"","type":"uint256","internalType":"uint256"}],"stateMutability":"view"},{"type":"function","name":"callbackContract","inputs":[],"outputs":[{"name":"","type":"address","internalType":"address"}],"stateMutability":"view"},{"type":"function","name":"getFeeDiscount","inputs":[{"name":"user","type":"address","internalType":"address"}],"outputs":[{"name":"","type":"uint24","internalType":"uint24"}],"stateMutability":"view"},{"type":"function","name":"loyaltyTier","inputs":[{"name":"","type":"address","internalType":"address"}],"outputs":[{"name":"","type":"uint8","internalType":"enum LoyaltyRegistry.LoyaltyTier"}],"stateMutability":"view"},{"type":"function","name":"lpActivityCount","inputs":[{"name":"","type":"address","internalType":"address"}],"outputs":[{"name":"","type":"uint256","internalType":"uint256"}],"stateMutability":"view"},{"type":"function","name":"owner","inputs":[],"outputs":[{"name":"","type":"address","internalType":"address"}],"stateMutability":"view"},{"type":"function","name":"recordLPActivity","inputs":[{"name":"lp","type":"address","internalType":"address"}],"outputs":[],"stateMutability":"nonpayable"},{"type":"function","name":"setCallbackContract","inputs":[{"name":"_cb","type":"address","internalType":"address"}],"outputs":[],"stateMutability":"nonpayable"},{"type":"function","name":"setTier","inputs":[{"name":"user","type":"address","internalType":"address"},{"name":"tier","type":"uint8","internalType":"enum LoyaltyRegistry.LoyaltyTier"}],"outputs":[],"stateMutability":"nonpayable"},{"type":"function","name":"totalLoyaltyMembers","inputs":[],"outputs":[{"name":"","type":"uint256","internalType":"uint256"}],"stateMutability":"view"},{"type":"event","name":"CallbackContractSet","inputs":[{"name":"callbackContract","type":"address","indexed":true,"internalType":"address"}],"anonymous":false},{"type":"event","name":"LPActivityRecorded","inputs":[{"name":"lp","type":"address","indexed":true,"internalType":"address"},{"name":"count","type":"uint256","indexed":false,"internalType":"uint256"}],"anonymous":false},{"type":"event","name":"TierManuallySet","inputs":[{"name":"lp","type":"address","indexed":true,"internalType":"address"},{"name":"tier","type":"uint8","indexed":false,"internalType":"enum LoyaltyRegistry.LoyaltyTier"}],"anonymous":false},{"type":"event","name":"TierUpdated","inputs":[{"name":"lp","type":"address","indexed":true,"internalType":"address"},{"name":"tier","type":"uint8","indexed":false,"internalType":"enum LoyaltyRegistry.LoyaltyTier"}],"anonymous":false},{"type":"error","name":"CallbackAlreadySet","inputs":[]},{"type":"error","name":"OnlyCallback","inputs":[]},{"type":"error","name":"OnlyOwner","inputs":[]},{"type":"error","name":"ZeroAddress","inputs":[]}],"bytecode":{"object":"0x6080604052348015600e575f80fd5b50600380546001600160a01b031916331790556108038061002e5f395ff3fe608060405234801561000f575f80fd5b50600436106100f0575f3560e01c80638edaa5a511610093578063b7fa7cfc11610063578063b7fa7cfc146101e8578063bd7e2aa4146101fb578063c1a0db301461020e578063e594f7bc14610216575f80fd5b80638edaa5a5146101ba57806393e2282d146101c3578063ad0c5f59146101d6578063af874b41146101df575f80fd5b806356973974116100ce578063569739741461015e57806369a2f026146101745780637a35aaa91461017c5780638da5cb5b1461018f575f80fd5b8063099ef7e4146100f45780630a6d88ef1461012c5780634a6e5db514610149575b5f80fd5b6101166101023660046106fa565b60016020525f908152604090205460ff1681565b604051610123919061072e565b60405180910390f35b610135610bb881565b60405162ffffff9091168152602001610123565b61015c6101573660046106fa565b610235565b005b610166600a81565b604051908152602001610123565b610166600181565b61015c61018a3660046106fa565b6102de565b6003546101a2906001600160a01b031681565b6040516001600160a01b039091168152602001610123565b6101356103e881565b61015c6101d1366004610754565b6103bb565b6101356107d081565b61016660045481565b6101356101f63660046106fa565b61051d565b6002546101a2906001600160a01b031681565b610166600581565b6101666102243660046106fa565b5f6020819052908152604090205481565b6002546001600160a01b03163314610260576040516390f5ac5f60e01b815260040160405180910390fd5b6001600160a01b0381165f908152602081905260408120805491610283836107a0565b90915550506001600160a01b0381165f81815260208181526040918290205491519182527f183a9f3954f5e4eaecf4ac05d358b8d01ca5beb05db1fe9894d1ec302f03f498910160405180910390a26102db816105a9565b50565b6003546001600160a01b0316331461030957604051635fc483c560e01b815260040160405180910390fd5b6001600160a01b0381166103305760405163d92e233d60e01b815260040160405180910390fd5b6002546001600160a01b03161561035a57604051632904228760e11b815260040160405180910390fd5b600280547fffffffffffffffffffffffff0000000000000000000000000000000000000000166001600160a01b0383169081179091556040517f669111c08006053f49c4c13e8480526e6a8be55408e4e6862865853a2424f50e905f90a250565b6003546001600160a01b031633146103e657604051635fc483c560e01b815260040160405180910390fd5b6001600160a01b0382165f9081526001602052604081205460ff16908160038111156104145761041461071a565b14801561043257505f82600381111561042f5761042f61071a565b14155b156104505760048054905f610446836107a0565b919050555061049b565b5f8160038111156104635761046361071a565b1415801561048157505f82600381111561047f5761047f61071a565b145b1561049b5760048054905f610495836107b8565b91905055505b6001600160a01b0383165f9081526001602081905260409091208054849260ff19909116908360038111156104d2576104d261071a565b0217905550826001600160a01b03167fa1b8f1e624a168c0b3bbc0611f3c4fb5884a526e9895ebe3af8160e6bb28c6fd83604051610510919061072e565b60405180910390a2505050565b6001600160a01b0381165f9081526001602052604081205460ff16600381600381111561054c5761054c61071a565b0361055b5750610bb892915050565b600281600381111561056f5761056f61071a565b0361057e57506107d092915050565b60018160038111156105925761059261071a565b036105a157506103e892915050565b505f92915050565b6001600160a01b0381165f90815260208181526040808320546001909252822054909160ff90911690600a83106105e257506003610605565b600583106105f257506002610605565b6001831061060257506001610605565b505f5b8160038111156106175761061761071a565b8160038111156106295761062961071a565b146106d9575f8260038111156106415761064161071a565b0361065b5760048054905f610655836107a0565b91905055505b6001600160a01b0384165f9081526001602081905260409091208054839260ff19909116908360038111156106925761069261071a565b0217905550836001600160a01b03167ff0880b9fd3445ca37e9b5cf896eb23e5292331792ae8b6e4c45bc527c713adad826040516106d0919061072e565b60405180910390a25b50505050565b80356001600160a01b03811681146106f5575f80fd5b919050565b5f6020828403121561070a575f80fd5b610713826106df565b9392505050565b634e487b7160e01b5f52602160045260245ffd5b602081016004831061074e57634e487b7160e01b5f52602160045260245ffd5b91905290565b5f8060408385031215610765575f80fd5b61076e836106df565b9150602083013560048110610781575f80fd5b809150509250929050565b634e487b7160e01b5f52601160045260245ffd5b5f600182016107b1576107b161078c565b5060010190565b5f816107c6576107c661078c565b505f19019056fea26469706673582212209d9028b2970f6f9179b1923ebda93a0e7581fdeae1e6a005eaf63d667263f23064736f6c634300081a0033","linkReferences":{}},"methodIdentifiers":{"BRONZE_DISCOUNT()":"8edaa5a5","BRONZE_THRESHOLD()":"69a2f026","GOLD_DISCOUNT()":"0a6d88ef","GOLD_THRESHOLD()":"56973974","SILVER_DISCOUNT()":"ad0c5f59","SILVER_THRESHOLD()":"c1a0db30","callbackContract()":"bd7e2aa4","getFeeDiscount(address)":"b7fa7cfc","loyaltyTier(address)":"099ef7e4","lpActivityCount(address)":"e594f7bc","owner()":"8da5cb5b","recordLPActivity(address)":"4a6e5db5","setCallbackContract(address)":"7a35aaa9","setTier(address,uint8)":"93e2282d","totalLoyaltyMembers()":"af874b41"},"id":98}