{"abi":[{"type":"constructor","inputs":[{"name":"_poolManager","type":"address","internalType":"contract IPoolManager"},{"name":"_owner","type":"address","internalType":"address"}],"stateMutability":"nonpayable"},{"type":"function","name":"MAX_FEE","inputs":[],"outputs":[{"name":"","type":"uint24","internalType":"uint24"}],"stateMutability":"view"},{"type":"function","name":"STALENESS_PERIOD","inputs":[],"outputs":[{"name":"","type":"uint256","internalType":"uint256"}],"stateMutability":"view"},{"type":"function","name":"afterAddLiquidity","inputs":[{"name":"sender","type":"address","internalType":"address"},{"name":"key","type":"tuple","internalType":"struct PoolKey","components":[{"name":"currency0","type":"address","internalType":"Currency"},{"name":"currency1","type":"address","internalType":"Currency"},{"name":"fee","type":"uint24","internalType":"uint24"},{"name":"tickSpacing","type":"int24","internalType":"int24"},{"name":"hooks","type":"address","internalType":"contract IHooks"}]},{"name":"params","type":"tuple","internalType":"struct ModifyLiquidityParams","components":[{"name":"tickLower","type":"int24","internalType":"int24"},{"name":"tickUpper","type":"int24","internalType":"int24"},{"name":"liquidityDelta","type":"int256","internalType":"int256"},{"name":"salt","type":"bytes32","internalType":"bytes32"}]},{"name":"delta","type":"int256","internalType":"BalanceDelta"},{"name":"feesAccrued","type":"int256","internalType":"BalanceDelta"},{"name":"hookData","type":"bytes","internalType":"bytes"}],"outputs":[{"name":"","type":"bytes4","internalType":"bytes4"},{"name":"","type":"int256","internalType":"BalanceDelta"}],"stateMutability":"nonpayable"},{"type":"function","name":"afterDonate","inputs":[{"name":"sender","type":"address","internalType":"address"},{"name":"key","type":"tuple","internalType":"struct PoolKey","components":[{"name":"currency0","type":"address","internalType":"Currency"},{"name":"currency1","type":"address","internalType":"Currency"},{"name":"fee","type":"uint24","internalType":"uint24"},{"name":"tickSpacing","type":"int24","internalType":"int24"},{"name":"hooks","type":"address","internalType":"contract IHooks"}]},{"name":"amount0","type":"uint256","internalType":"uint256"},{"name":"amount1","type":"uint256","internalType":"uint256"},{"name":"hookData","type":"bytes","internalType":"bytes"}],"outputs":[{"name":"","type":"bytes4","internalType":"bytes4"}],"stateMutability":"nonpayable"},{"type":"function","name":"afterInitialize","inputs":[{"name":"sender","type":"address","internalType":"address"},{"name":"key","type":"tuple","internalType":"struct PoolKey","components":[{"name":"currency0","type":"address","internalType":"Currency"},{"name":"currency1","type":"address","internalType":"Currency"},{"name":"fee","type":"uint24","internalType":"uint24"},{"name":"tickSpacing","type":"int24","internalType":"int24"},{"name":"hooks","type":"address","internalType":"contract IHooks"}]},{"name":"sqrtPriceX96","type":"uint160","internalType":"uint160"},{"name":"tick","type":"int24","internalType":"int24"}],"outputs":[{"name":"","type":"bytes4","internalType":"bytes4"}],"stateMutability":"nonpayable"},{"type":"function","name":"afterRemoveLiquidity","inputs":[{"name":"sender","type":"address","internalType":"address"},{"name":"key","type":"tuple","internalType":"struct PoolKey","components":[{"name":"currency0","type":"address","internalType":"Currency"},{"name":"currency1","type":"address","internalType":"Currency"},{"name":"fee","type":"uint24","internalType":"uint24"},{"name":"tickSpacing","type":"int24","internalType":"int24"},{"name":"hooks","type":"address","internalType":"contract IHooks"}]},{"name":"params","type":"tuple","internalType":"struct ModifyLiquidityParams","components":[{"name":"tickLower","type":"int24","internalType":"int24"},{"name":"tickUpper","type":"int24","internalType":"int24"},{"name":"liquidityDelta","type":"int256","internalType":"int256"},{"name":"salt","type":"bytes32","internalType":"bytes32"}]},{"name":"delta","type":"int256","internalType":"BalanceDelta"},{"name":"feesAccrued","type":"int256","internalType":"BalanceDelta"},{"name":"hookData","type":"bytes","internalType":"bytes"}],"outputs":[{"name":"","type":"bytes4","internalType":"bytes4"},{"name":"","type":"int256","internalType":"BalanceDelta"}],"stateMutability":"nonpayable"},{"type":"function","name":"afterSwap","inputs":[{"name":"sender","type":"address","internalType":"address"},{"name":"key","type":"tuple","internalType":"struct PoolKey","components":[{"name":"currency0","type":"address","internalType":"Currency"},{"name":"currency1","type":"address","internalType":"Currency"},{"name":"fee","type":"uint24","internalType":"uint24"},{"name":"tickSpacing","type":"int24","internalType":"int24"},{"name":"hooks","type":"address","internalType":"contract IHooks"}]},{"name":"params","type":"tuple","internalType":"struct SwapParams","components":[{"name":"zeroForOne","type":"bool","internalType":"bool"},{"name":"amountSpecified","type":"int256","internalType":"int256"},{"name":"sqrtPriceLimitX96","type":"uint160","internalType":"uint160"}]},{"name":"delta","type":"int256","internalType":"BalanceDelta"},{"name":"hookData","type":"bytes","internalType":"bytes"}],"outputs":[{"name":"","type":"bytes4","internalType":"bytes4"},{"name":"","type":"int128","internalType":"int128"}],"stateMutability":"nonpayable"},{"type":"function","name":"baseFee","inputs":[],"outputs":[{"name":"","type":"uint24","internalType":"uint24"}],"stateMutability":"view"},{"type":"function","name":"beforeAddLiquidity","inputs":[{"name":"sender","type":"address","internalType":"address"},{"name":"key","type":"tuple","internalType":"struct PoolKey","components":[{"name":"currency0","type":"address","internalType":"Currency"},{"name":"currency1","type":"address","internalType":"Currency"},{"name":"fee","type":"uint24","internalType":"uint24"},{"name":"tickSpacing","type":"int24","internalType":"int24"},{"name":"hooks","type":"address","internalType":"contract IHooks"}]},{"name":"params","type":"tuple","internalType":"struct ModifyLiquidityParams","components":[{"name":"tickLower","type":"int24","internalType":"int24"},{"name":"tickUpper","type":"int24","internalType":"int24"},{"name":"liquidityDelta","type":"int256","internalType":"int256"},{"name":"salt","type":"bytes32","internalType":"bytes32"}]},{"name":"hookData","type":"bytes","internalType":"bytes"}],"outputs":[{"name":"","type":"bytes4","internalType":"bytes4"}],"stateMutability":"nonpayable"},{"type":"function","name":"beforeDonate","inputs":[{"name":"sender","type":"address","internalType":"address"},{"name":"key","type":"tuple","internalType":"struct PoolKey","components":[{"name":"currency0","type":"address","internalType":"Currency"},{"name":"currency1","type":"address","internalType":"Currency"},{"name":"fee","type":"uint24","internalType":"uint24"},{"name":"tickSpacing","type":"int24","internalType":"int24"},{"name":"hooks","type":"address","internalType":"contract IHooks"}]},{"name":"amount0","type":"uint256","internalType":"uint256"},{"name":"amount1","type":"uint256","internalType":"uint256"},{"name":"hookData","type":"bytes","internalType":"bytes"}],"outputs":[{"name":"","type":"bytes4","internalType":"bytes4"}],"stateMutability":"nonpayable"},{"type":"function","name":"beforeInitialize","inputs":[{"name":"sender","type":"address","internalType":"address"},{"name":"key","type":"tuple","internalType":"struct PoolKey","components":[{"name":"currency0","type":"address","internalType":"Currency"},{"name":"currency1","type":"address","internalType":"Currency"},{"name":"fee","type":"uint24","internalType":"uint24"},{"name":"tickSpacing","type":"int24","internalType":"int24"},{"name":"hooks","type":"address","internalType":"contract IHooks"}]},{"name":"sqrtPriceX96","type":"uint160","internalType":"uint160"}],"outputs":[{"name":"","type":"bytes4","internalType":"bytes4"}],"stateMutability":"nonpayable"},{"type":"function","name":"beforeRemoveLiquidity","inputs":[{"name":"sender","type":"address","internalType":"address"},{"name":"key","type":"tuple","internalType":"struct PoolKey","components":[{"name":"currency0","type":"address","internalType":"Currency"},{"name":"currency1","type":"address","internalType":"Currency"},{"name":"fee","type":"uint24","internalType":"uint24"},{"name":"tickSpacing","type":"int24","internalType":"int24"},{"name":"hooks","type":"address","internalType":"contract IHooks"}]},{"name":"params","type":"tuple","internalType":"struct ModifyLiquidityParams","components":[{"name":"tickLower","type":"int24","internalType":"int24"},{"name":"tickUpper","type":"int24","internalType":"int24"},{"name":"liquidityDelta","type":"int256","internalType":"int256"},{"name":"salt","type":"bytes32","internalType":"bytes32"}]},{"name":"hookData","type":"bytes","internalType":"bytes"}],"outputs":[{"name":"","type":"bytes4","internalType":"bytes4"}],"stateMutability":"nonpayable"},{"type":"function","name":"beforeSwap","inputs":[{"name":"sender","type":"address","internalType":"address"},{"name":"key","type":"tuple","internalType":"struct PoolKey","components":[{"name":"currency0","type":"address","internalType":"Currency"},{"name":"currency1","type":"address","internalType":"Currency"},{"name":"fee","type":"uint24","internalType":"uint24"},{"name":"tickSpacing","type":"int24","internalType":"int24"},{"name":"hooks","type":"address","internalType":"contract IHooks"}]},{"name":"params","type":"tuple","internalType":"struct SwapParams","components":[{"name":"zeroForOne","type":"bool","internalType":"bool"},{"name":"amountSpecified","type":"int256","internalType":"int256"},{"name":"sqrtPriceLimitX96","type":"uint160","internalType":"uint160"}]},{"name":"hookData","type":"bytes","internalType":"bytes"}],"outputs":[{"name":"","type":"bytes4","internalType":"bytes4"},{"name":"","type":"int256","internalType":"BeforeSwapDelta"},{"name":"","type":"uint24","internalType":"uint24"}],"stateMutability":"nonpayable"},{"type":"function","name":"callbackContract","inputs":[],"outputs":[{"name":"","type":"address","internalType":"address"}],"stateMutability":"view"},{"type":"function","name":"currentDivergenceFee","inputs":[],"outputs":[{"name":"","type":"uint24","internalType":"uint24"}],"stateMutability":"view"},{"type":"function","name":"getEffectiveFee","inputs":[],"outputs":[{"name":"","type":"uint24","internalType":"uint24"}],"stateMutability":"view"},{"type":"function","name":"getHookPermissions","inputs":[],"outputs":[{"name":"","type":"tuple","internalType":"struct Hooks.Permissions","components":[{"name":"beforeInitialize","type":"bool","internalType":"bool"},{"name":"afterInitialize","type":"bool","internalType":"bool"},{"name":"beforeAddLiquidity","type":"bool","internalType":"bool"},{"name":"afterAddLiquidity","type":"bool","internalType":"bool"},{"name":"beforeRemoveLiquidity","type":"bool","internalType":"bool"},{"name":"afterRemoveLiquidity","type":"bool","internalType":"bool"},{"name":"beforeSwap","type":"bool","internalType":"bool"},{"name":"afterSwap","type":"bool","internalType":"bool"},{"name":"beforeDonate","type":"bool","internalType":"bool"},{"name":"afterDonate","type":"bool","internalType":"bool"},{"name":"beforeSwapReturnDelta","type":"bool","internalType":"bool"},{"name":"afterSwapReturnDelta","type":"bool","internalType":"bool"},{"name":"afterAddLiquidityReturnDelta","type":"bool","internalType":"bool"},{"name":"afterRemoveLiquidityReturnDelta","type":"bool","internalType":"bool"}]}],"stateMutability":"pure"},{"type":"function","name":"getProtocolStats","inputs":[],"outputs":[{"name":"effectiveFee","type":"uint24","internalType":"uint24"},{"name":"_baseFee","type":"uint24","internalType":"uint24"},{"name":"divergenceFee","type":"uint24","internalType":"uint24"},{"name":"_lastFeeUpdate","type":"uint256","internalType":"uint256"},{"name":"arbFeeCaptured","type":"uint256","internalType":"uint256"},{"name":"loyaltyDiscounts","type":"uint256","internalType":"uint256"},{"name":"_totalSwaps","type":"uint256","internalType":"uint256"},{"name":"isPaused","type":"bool","internalType":"bool"}],"stateMutability":"view"},{"type":"function","name":"isFeeElevated","inputs":[],"outputs":[{"name":"elevated","type":"bool","internalType":"bool"},{"name":"elevationBps","type":"uint24","internalType":"uint24"}],"stateMutability":"view"},{"type":"function","name":"lastFeeUpdate","inputs":[],"outputs":[{"name":"","type":"uint256","internalType":"uint256"}],"stateMutability":"view"},{"type":"function","name":"loyaltyRegistry","inputs":[],"outputs":[{"name":"","type":"address","internalType":"contract ILoyaltyRegistry"}],"stateMutability":"view"},{"type":"function","name":"owner","inputs":[],"outputs":[{"name":"","type":"address","internalType":"address"}],"stateMutability":"view"},{"type":"function","name":"pause","inputs":[],"outputs":[],"stateMutability":"nonpayable"},{"type":"function","name":"paused","inputs":[],"outputs":[{"name":"","type":"bool","internalType":"bool"}],"stateMutability":"view"},{"type":"function","name":"poolManager","inputs":[],"outputs":[{"name":"","type":"address","internalType":"contract IPoolManager"}],"stateMutability":"view"},{"type":"function","name":"resetToBaseFee","inputs":[],"outputs":[],"stateMutability":"nonpayable"},{"type":"function","name":"setCallbackContract","inputs":[{"name":"_cb","type":"address","internalType":"address"}],"outputs":[],"stateMutability":"nonpayable"},{"type":"function","name":"setLoyaltyRegistry","inputs":[{"name":"_registry","type":"address","internalType":"address"}],"outputs":[],"stateMutability":"nonpayable"},{"type":"function","name":"totalArbFeeCaptured","inputs":[],"outputs":[{"name":"","type":"uint256","internalType":"uint256"}],"stateMutability":"view"},{"type":"function","name":"totalLoyaltyDiscountsApplied","inputs":[],"outputs":[{"name":"","type":"uint256","internalType":"uint256"}],"stateMutability":"view"},{"type":"function","name":"totalPriorityFeesCaptured","inputs":[],"outputs":[{"name":"","type":"uint256","internalType":"uint256"}],"stateMutability":"view"},{"type":"function","name":"totalSwaps","inputs":[],"outputs":[{"name":"","type":"uint256","internalType":"uint256"}],"stateMutability":"view"},{"type":"function","name":"unpause","inputs":[],"outputs":[],"stateMutability":"nonpayable"},{"type":"function","name":"updateDivergenceFee","inputs":[{"name":"newFee","type":"uint24","internalType":"uint24"},{"name":"divergenceBps","type":"uint256","internalType":"uint256"}],"outputs":[],"stateMutability":"nonpayable"},{"type":"event","name":"ArbFeeCaptured","inputs":[{"name":"effectiveFee","type":"uint24","indexed":false,"internalType":"uint24"},{"name":"baseFee","type":"uint24","indexed":false,"internalType":"uint24"},{"name":"extraFeeBps","type":"uint256","indexed":false,"internalType":"uint256"}],"anonymous":false},{"type":"event","name":"CallbackContractSet","inputs":[{"name":"callbackContract","type":"address","indexed":true,"internalType":"address"}],"anonymous":false},{"type":"event","name":"DivergenceFeeUpdated","inputs":[{"name":"newFee","type":"uint24","indexed":false,"internalType":"uint24"},{"name":"divergenceBps","type":"uint256","indexed":false,"internalType":"uint256"},{"name":"timestamp","type":"uint256","indexed":false,"internalType":"uint256"}],"anonymous":false},{"type":"event","name":"FeeResetToBase","inputs":[{"name":"timestamp","type":"uint256","indexed":false,"internalType":"uint256"}],"anonymous":false},{"type":"event","name":"LoyaltyDiscountApplied","inputs":[{"name":"user","type":"address","indexed":true,"internalType":"address"},{"name":"discount","type":"uint24","indexed":false,"internalType":"uint24"},{"name":"finalFee","type":"uint24","indexed":false,"internalType":"uint24"}],"anonymous":false},{"type":"event","name":"LoyaltyRegistrySet","inputs":[{"name":"loyaltyRegistry","type":"address","indexed":true,"internalType":"address"}],"anonymous":false},{"type":"event","name":"Paused","inputs":[{"name":"account","type":"address","indexed":true,"internalType":"address"}],"anonymous":false},{"type":"event","name":"UnichainPriorityFeeMonitored","inputs":[{"name":"priorityFee","type":"uint256","indexed":false,"internalType":"uint256"},{"name":"blockBaseFee","type":"uint256","indexed":false,"internalType":"uint256"}],"anonymous":false},{"type":"event","name":"Unpaused","inputs":[{"name":"account","type":"address","indexed":true,"internalType":"address"}],"anonymous":false},{"type":"error","name":"CallbackAlreadySet","inputs":[]},{"type":"error","name":"EnforcedPause","inputs":[]},{"type":"error","name":"HookNotImplemented","inputs":[]},{"type":"error","name":"LoyaltyRegistryAlreadySet","inputs":[]},{"type":"error","name":"NotPoolManager","inputs":[]},{"type":"error","name":"OnlyCallback","inputs":[]},{"type":"error","name":"OnlyOwner","inputs":[]},{"type":"error","name":"PoolMustUseDynamicFee","inputs":[]},{"type":"error","name":"ZeroAddress","inputs":[]}],"bytecode":{"object":"0x60a06040525f805462ffffff1916610bb817905534801561001e575f80fd5b50604051611c18380380611c1883398101604081905261003d916102e7565b6001600160a01b038216608052816100543061007b565b50600680546001600160a01b0319166001600160a01b03929092169190911790555061031f565b61016b81610166604080516101c0810182525f80825260208201819052918101829052606081018290526080810182905260a0810182905260c0810182905260e08101829052610100810182905261012081018290526101408101829052610160810182905261018081018290526101a081019190915250604080516101c08101825260018082525f60208301819052928201839052606082018390526080820183905260a0820183905260c0820181905260e0820152610100810182905261012081018290526101408101829052610160810182905261018081018290526101a081019190915290565b61016e565b50565b80511515612000831615151415806101925750602081015115156110008316151514155b806101a95750604081015115156108008316151514155b806101c05750606081015115156104008316151514155b806101d75750608081015115156102008316151514155b806101ee575060a081015115156101008316151514155b80610204575060c0810151151560808316151514155b8061021a575060e0810151151560408316151514155b806102315750610100810151151560208316151514155b806102485750610120810151151560108316151514155b8061025f5750610140810151151560088316151514155b806102765750610160810151151560048316151514155b8061028d5750610180810151151560028316151514155b806102a457506101a0810151151560018316151514155b156102ba576102ba630732d7b560e51b836102be565b5050565b815f526001600160a01b03811660045260245ffd5b6001600160a01b038116811461016b575f80fd5b5f80604083850312156102f8575f80fd5b8251610303816102d3565b6020840151909250610314816102d3565b809150509250929050565b6080516118b06103685f395f81816105b2015281816106f0015281816107c50152818161082e0152818161089701528181610b3e01528181610ba50152610c0801526118b05ff3fe608060405234801561000f575f80fd5b506004361061021b575f3560e01c80639f063efc11610123578063c4818ef6116100b8578063dc4c90d311610088578063dd8c18a21161006e578063dd8c18a2146105e7578063e1b4af6914610453578063f26fc91d146105ef575f80fd5b8063dc4c90d3146105ad578063dc98354e146105d4575f80fd5b8063c4818ef614610494578063c4e833ce1461049d578063d0a500f814610591578063dbb6eb161461059a575f80fd5b8063b96bedb2116100f3578063b96bedb214610466578063bc063e1a1461046f578063bd7e2aa414610478578063c0a552cc1461048b575f80fd5b80639f063efc14610302578063b47b2fb114610414578063b4a800ce1461044a578063b6a8b0fa14610453575f80fd5b80636c2bbe7e116101b3578063771aceef116101835780638456cb59116101695780638456cb59146103ce578063847708af146103d65780638da5cb5b146103e9575f80fd5b8063771aceef1461036b5780637a35aaa9146103bb575f80fd5b80636c2bbe7e146103025780636ef25c3a146103355780636fe7e6eb1461034357806374af6a7814610356575f80fd5b80633f4ba83a116101ee5780633f4ba83a1461027c57806356f2537e14610284578063575e24b4146102a05780635c975abb146102de575f80fd5b80631397456e1461021f57806321d0ee701461023457806324c9477a14610265578063259982e514610234575b5f80fd5b61023261022d36600461124a565b610612565b005b6102476102423660046112d7565b6106e4565b6040516001600160e01b031990911681526020015b60405180910390f35b61026e61012c81565b60405190815260200161025c565b610232610745565b61028c6107a9565b60405162ffffff909116815260200161025c565b6102b36102ae36600461135e565b6107b7565b604080516001600160e01b03199094168452602084019290925262ffffff169082015260600161025c565b6008546102f290600160a01b900460ff1681565b604051901515815260200161025c565b6103156103103660046113b8565b610821565b604080516001600160e01b0319909316835260208301919091520161025c565b5f5461028c9062ffffff1681565b610247610351366004611443565b61088b565b5f5461028c906301000000900462ffffff1681565b6103736108ea565b6040805162ffffff998a168152978916602089015295909716948601949094526060850192909252608084015260a083015260c082015290151560e08201526101000161025c565b6102326103c936600461124a565b61093e565b610232610a10565b6102326103e43660046114b2565b610a7a565b6006546103fc906001600160a01b031681565b6040516001600160a01b03909116815260200161025c565b6104276104223660046114dc565b610b31565b604080516001600160e01b03199093168352600f9190910b60208301520161025c565b61026e60045481565b61024761046136600461155d565b610b99565b61026e60015481565b61028c61c35081565b6007546103fc906001600160a01b031681565b61026e60055481565b61026e60035481565b610584604080516101c0810182525f80825260208201819052918101829052606081018290526080810182905260a0810182905260c0810182905260e08101829052610100810182905261012081018290526101408101829052610160810182905261018081018290526101a081019190915250604080516101c08101825260018082525f60208301819052928201839052606082018390526080820183905260a0820183905260c0820181905260e0820152610100810182905261012081018290526101408101829052610160810182905261018081018290526101a081019190915290565b60405161025c91906115b7565b61026e60025481565b6008546103fc906001600160a01b031681565b6103fc7f000000000000000000000000000000000000000000000000000000000000000081565b6102476105e23660046116d8565b610bfc565b610232610c59565b6105f7610ccd565b60408051921515835262ffffff90911660208301520161025c565b6006546001600160a01b0316331461063d57604051635fc483c560e01b815260040160405180910390fd5b6001600160a01b0381166106645760405163d92e233d60e01b815260040160405180910390fd5b6008546001600160a01b03161561068e5760405163d8ac171d60e01b815260040160405180910390fd5b6008805473ffffffffffffffffffffffffffffffffffffffff19166001600160a01b0383169081179091556040517f0431ce75636796db8c32195a72e997facd88618f0814a7fa7427df81e134cda0905f90a250565b5f336001600160a01b037f0000000000000000000000000000000000000000000000000000000000000000161461072e5760405163570c108560e11b815260040160405180910390fd5b61073b8686868686610d0c565b9695505050505050565b6006546001600160a01b0316331461077057604051635fc483c560e01b815260040160405180910390fd5b6008805460ff60a01b1916905560405133907f5db9ee0a495bf2e6ff9c91a7834c1ba4fdd244a5e8aa4e537bd38aeae4b073aa905f90a2565b5f6107b2610d26565b905090565b5f8080336001600160a01b037f000000000000000000000000000000000000000000000000000000000000000016146108035760405163570c108560e11b815260040160405180910390fd5b6108108888888888610e16565b925092509250955095509592505050565b5f80336001600160a01b037f0000000000000000000000000000000000000000000000000000000000000000161461086c5760405163570c108560e11b815260040160405180910390fd5b61087b89898989898989610f44565b9150915097509795505050505050565b5f336001600160a01b037f000000000000000000000000000000000000000000000000000000000000000016146108d55760405163570c108560e11b815260040160405180910390fd5b6108e185858585610d0c565b95945050505050565b5f805f805f805f806108fa610d26565b5f54600154600254600354600454600854959e62ffffff8087169f5063010000009096049095169c50929a5090985096509450600160a01b90910460ff1692509050565b6006546001600160a01b0316331461096957604051635fc483c560e01b815260040160405180910390fd5b6001600160a01b0381166109905760405163d92e233d60e01b815260040160405180910390fd5b6007546001600160a01b0316156109ba57604051632904228760e11b815260040160405180910390fd5b6007805473ffffffffffffffffffffffffffffffffffffffff19166001600160a01b0383169081179091556040517f669111c08006053f49c4c13e8480526e6a8be55408e4e6862865853a2424f50e905f90a250565b6006546001600160a01b03163314610a3b57604051635fc483c560e01b815260040160405180910390fd5b6008805460ff60a01b1916600160a01b17905560405133907f62e78cea01bee320cd4e420270b5ea74000d11b0c9f74754ebdbfc544b05a258905f90a2565b6007546001600160a01b03163314610aa5576040516390f5ac5f60e01b815260040160405180910390fd5b61c35062ffffff831611610ab95781610abd565b61c3505b5f805465ffffff0000001916630100000062ffffff938416810291909117918290554260018190556040805192909304909316815260208101849052908101919091527fe53d3c58cba25704d1c9bdfe31ff07ff81008f75defd07643118a5c9c1b566799060600160405180910390a15050565b5f80336001600160a01b037f00000000000000000000000000000000000000000000000000000000000000001614610b7c5760405163570c108560e11b815260040160405180910390fd5b610b8a888888888888610f5f565b91509150965096945050505050565b5f336001600160a01b037f00000000000000000000000000000000000000000000000000000000000000001614610be35760405163570c108560e11b815260040160405180910390fd5b610bf1878787878787610d0c565b979650505050505050565b5f336001600160a01b037f00000000000000000000000000000000000000000000000000000000000000001614610c465760405163570c108560e11b815260040160405180910390fd5b610c518484846111b9565b949350505050565b6007546001600160a01b03163314610c84576040516390f5ac5f60e01b815260040160405180910390fd5b5f805465ffffff000000191690554260018190556040519081527fea22ab25792726c19264cc473d0f41a390be0ce752b3d8a4639ad4421d9dccc79060200160405180910390a1565b5f805f610cd8610d26565b5f5462ffffff908116908216119350905082610cf4575f610d05565b5f54610d059062ffffff1682611733565b9150509091565b5f604051630a85dc2960e01b815260040160405180910390fd5b5f8054819062ffffff80821663010000009092041611610d4c575f5462ffffff16610d5b565b5f546301000000900462ffffff165b905061c35062ffffff821611610d715780610d75565b61c3505b5f5490915062ffffff908116908216118015610d9257505f600154115b15610e11575f60015442610da6919061174e565b905061012c8110610dbf5750505f5462ffffff16919050565b5f61012c610dcd838261174e565b5f54610dde9062ffffff1686611733565b62ffffff16610ded9190611761565b610df79190611778565b5f54909150610e0c90829062ffffff16611797565b925050505b919050565b5f805f600860149054906101000a900460ff1615610e475760405163d93c066560e01b815260040160405180910390fd5b5f610e50610d26565b6008549091506001600160a01b031615610f25576008545f906001600160a01b031663b7fa7cfc610e818989611201565b6040516001600160e01b031960e084901b1681526001600160a01b039091166004820152602401602060405180830381865afa158015610ec3573d5f803e3d5ffd5b505050506040513d601f19601f82011682018060405250810190610ee791906117b2565b905062ffffff811615610f2357612710610f018282611733565b62ffffff168362ffffff16610f169190611761565b610f209190611778565b91505b505b6315d7892d60e21b93505f925062400000179050955095509592505050565b5f80604051630a85dc2960e01b815260040160405180910390fd5b600480545f9182919082610f72836117cd565b91905055505f610f80610d26565b5f5490915062ffffff908116908216111561100f575f8054610fa79062ffffff1683611733565b62ffffff1690508060025f828254610fbf91906117e5565b90915550505f546040805162ffffff8086168252909216602083015281018290527fb9a1cbb52b7cf0be950800fbe7385be076983a53c55cb89674cb6cf36e56298d9060600160405180910390a1505b6008546001600160a01b03161561113d575f61102b8686611201565b600854604051632dfe9f3f60e21b81526001600160a01b0380841660048301529293505f929091169063b7fa7cfc90602401602060405180830381865afa158015611078573d5f803e3d5ffd5b505050506040513d601f19601f8201168201806040525081019061109c91906117b2565b905062ffffff81161561113a5760038054905f6110b8836117cd565b909155505f90506127106110cc8382611733565b62ffffff168562ffffff166110e19190611761565b6110eb9190611778565b6040805162ffffff8086168252831660208201529192506001600160a01b038516917fb13b676ab29ccd4a00ff6bac853b63b2b6b2bad61845b06c8062d75b47bf6f03910160405180910390a2505b50505b483a11156111a2575f611150483a61174e565b90508060055f82825461116391906117e5565b9091555050604080518281524860208201527f233ff8c1b93b93f88d84b7df1e69eac6067e05dbbd25a8f513060e43c62c0e61910160405180910390a1505b5063b47b2fb160e01b985f98509650505050505050565b5f628000006111ce60608501604086016117f8565b62ffffff16146111f15760405163d2b7d9b960e01b815260040160405180910390fd5b50636e4c1aa760e11b9392505050565b5f6014821061122a5761121760145f8486611813565b6112209161183a565b60601c905061122d565b50325b92915050565b6001600160a01b0381168114611247575f80fd5b50565b5f6020828403121561125a575f80fd5b813561126581611233565b9392505050565b5f60a0828403121561127c575f80fd5b50919050565b5f6080828403121561127c575f80fd5b5f8083601f8401126112a2575f80fd5b50813567ffffffffffffffff8111156112b9575f80fd5b6020830191508360208285010111156112d0575f80fd5b9250929050565b5f805f805f61016086880312156112ec575f80fd5b85356112f781611233565b9450611306876020880161126c565b93506113158760c08801611282565b925061014086013567ffffffffffffffff811115611331575f80fd5b61133d88828901611292565b969995985093965092949392505050565b5f6060828403121561127c575f80fd5b5f805f805f6101408688031215611373575f80fd5b853561137e81611233565b945061138d876020880161126c565b935061139c8760c0880161134e565b925061012086013567ffffffffffffffff811115611331575f80fd5b5f805f805f805f6101a0888a0312156113cf575f80fd5b87356113da81611233565b96506113e98960208a0161126c565b95506113f88960c08a01611282565b94506101408801359350610160880135925061018088013567ffffffffffffffff811115611424575f80fd5b6114308a828b01611292565b989b979a50959850939692959293505050565b5f805f806101008587031215611457575f80fd5b843561146281611233565b9350611471866020870161126c565b925060c085013561148181611233565b915060e0850135600281900b8114611497575f80fd5b939692955090935050565b62ffffff81168114611247575f80fd5b5f80604083850312156114c3575f80fd5b82356114ce816114a2565b946020939093013593505050565b5f805f805f8061016087890312156114f2575f80fd5b86356114fd81611233565b955061150c886020890161126c565b945061151b8860c0890161134e565b9350610120870135925061014087013567ffffffffffffffff81111561153f575f80fd5b61154b89828a01611292565b979a9699509497509295939492505050565b5f805f805f806101208789031215611573575f80fd5b863561157e81611233565b955061158d886020890161126c565b945060c0870135935060e0870135925061010087013567ffffffffffffffff81111561153f575f80fd5b8151151581526101c0810160208301516115d5602084018215159052565b5060408301516115e9604084018215159052565b5060608301516115fd606084018215159052565b506080830151611611608084018215159052565b5060a083015161162560a084018215159052565b5060c083015161163960c084018215159052565b5060e083015161164d60e084018215159052565b5061010083015161166361010084018215159052565b5061012083015161167961012084018215159052565b5061014083015161168f61014084018215159052565b506101608301516116a561016084018215159052565b506101808301516116bb61018084018215159052565b506101a08301516116d16101a084018215159052565b5092915050565b5f805f60e084860312156116ea575f80fd5b83356116f581611233565b9250611704856020860161126c565b915060c084013561171481611233565b809150509250925092565b634e487b7160e01b5f52601160045260245ffd5b62ffffff828116828216039081111561122d5761122d61171f565b8181038181111561122d5761122d61171f565b808202811582820484141761122d5761122d61171f565b5f8261179257634e487b7160e01b5f52601260045260245ffd5b500490565b62ffffff818116838216019081111561122d5761122d61171f565b5f602082840312156117c2575f80fd5b8151611265816114a2565b5f600182016117de576117de61171f565b5060010190565b8082018082111561122d5761122d61171f565b5f60208284031215611808575f80fd5b8135611265816114a2565b5f8085851115611821575f80fd5b8386111561182d575f80fd5b5050820193919092039150565b80356bffffffffffffffffffffffff1981169060148410156116d1576bffffffffffffffffffffffff1960149490940360031b84901b169092169291505056fea264697066735822122066df8902b9dcb2d053d5245c8c5eb31de413730b0feb51971882c95795539e9464736f6c634300081a0033","linkReferences":{}},"methodIdentifiers":{"MAX_FEE()":"bc063e1a","STALENESS_PERIOD()":"24c9477a","afterAddLiquidity(address,(address,address,uint24,int24,address),(int24,int24,int256,bytes32),int256,int256,bytes)":"9f063efc","afterDonate(address,(address,address,uint24,int24,address),uint256,uint256,bytes)":"e1b4af69","afterInitialize(address,(address,address,uint24,int24,address),uint160,int24)":"6fe7e6eb","afterRemoveLiquidity(address,(address,address,uint24,int24,address),(int24,int24,int256,bytes32),int256,int256,bytes)":"6c2bbe7e","afterSwap(address,(address,address,uint24,int24,address),(bool,int256,uint160),int256,bytes)":"b47b2fb1","baseFee()":"6ef25c3a","beforeAddLiquidity(address,(address,address,uint24,int24,address),(int24,int24,int256,bytes32),bytes)":"259982e5","beforeDonate(address,(address,address,uint24,int24,address),uint256,uint256,bytes)":"b6a8b0fa","beforeInitialize(address,(address,address,uint24,int24,address),uint160)":"dc98354e","beforeRemoveLiquidity(address,(address,address,uint24,int24,address),(int24,int24,int256,bytes32),bytes)":"21d0ee70","beforeSwap(address,(address,address,uint24,int24,address),(bool,int256,uint160),bytes)":"575e24b4","callbackContract()":"bd7e2aa4","currentDivergenceFee()":"74af6a78","getEffectiveFee()":"56f2537e","getHookPermissions()":"c4e833ce","getProtocolStats()":"771aceef","isFeeElevated()":"f26fc91d","lastFeeUpdate()":"b96bedb2","loyaltyRegistry()":"dbb6eb16","owner()":"8da5cb5b","pause()":"8456cb59","paused()":"5c975abb","poolManager()":"dc4c90d3","resetToBaseFee()":"dd8c18a2","setCallbackContract(address)":"7a35aaa9","setLoyaltyRegistry(address)":"1397456e","totalArbFeeCaptured()":"d0a500f8","totalLoyaltyDiscountsApplied()":"c4818ef6","totalPriorityFeesCaptured()":"c0a552cc","totalSwaps()":"b4a800ce","unpause()":"3f4ba83a","updateDivergenceFee(uint24,uint256)":"847708af"},"id":96}