{"abi":[{"type":"constructor","inputs":[{"name":"_ethereumPool","type":"address","internalType":"address"},{"name":"_unichainPool","type":"address","internalType":"address"},{"name":"_callbackContract","type":"address","internalType":"address"},{"name":"_originChainId","type":"uint256","internalType":"uint256"},{"name":"_destChainId","type":"uint256","internalType":"uint256"}],"stateMutability":"payable"},{"type":"receive","stateMutability":"payable"},{"type":"function","name":"BURN_TOPIC_0","inputs":[],"outputs":[{"name":"","type":"uint256","internalType":"uint256"}],"stateMutability":"view"},{"type":"function","name":"CALLBACK_GAS_LIMIT","inputs":[],"outputs":[{"name":"","type":"uint64","internalType":"uint64"}],"stateMutability":"view"},{"type":"function","name":"DEST_CHAIN_ID","inputs":[],"outputs":[{"name":"","type":"uint256","internalType":"uint256"}],"stateMutability":"view"},{"type":"function","name":"DIVERGENCE_THRESHOLD_BPS","inputs":[],"outputs":[{"name":"","type":"uint256","internalType":"uint256"}],"stateMutability":"view"},{"type":"function","name":"FEE_CAPTURE_PERCENT","inputs":[],"outputs":[{"name":"","type":"uint256","internalType":"uint256"}],"stateMutability":"view"},{"type":"function","name":"FEE_CHANGE_THRESHOLD","inputs":[],"outputs":[{"name":"","type":"uint24","internalType":"uint24"}],"stateMutability":"view"},{"type":"function","name":"MAX_FEE","inputs":[],"outputs":[{"name":"","type":"uint24","internalType":"uint24"}],"stateMutability":"view"},{"type":"function","name":"MINT_TOPIC_0","inputs":[],"outputs":[{"name":"","type":"uint256","internalType":"uint256"}],"stateMutability":"view"},{"type":"function","name":"MIN_DIVERGENCE_STREAK","inputs":[],"outputs":[{"name":"","type":"uint8","internalType":"uint8"}],"stateMutability":"view"},{"type":"function","name":"MIN_LOYALTY_BLOCKS","inputs":[],"outputs":[{"name":"","type":"uint256","internalType":"uint256"}],"stateMutability":"view"},{"type":"function","name":"ORIGIN_CHAIN_ID","inputs":[],"outputs":[{"name":"","type":"uint256","internalType":"uint256"}],"stateMutability":"view"},{"type":"function","name":"V3_SWAP_TOPIC_0","inputs":[],"outputs":[{"name":"","type":"uint256","internalType":"uint256"}],"stateMutability":"view"},{"type":"function","name":"V4_SWAP_TOPIC_0","inputs":[],"outputs":[{"name":"","type":"uint256","internalType":"uint256"}],"stateMutability":"view"},{"type":"function","name":"callbackContract","inputs":[],"outputs":[{"name":"","type":"address","internalType":"address"}],"stateMutability":"view"},{"type":"function","name":"coverDebt","inputs":[],"outputs":[],"stateMutability":"nonpayable"},{"type":"function","name":"divergenceStreak","inputs":[],"outputs":[{"name":"","type":"uint8","internalType":"uint8"}],"stateMutability":"view"},{"type":"function","name":"ethereumPool","inputs":[],"outputs":[{"name":"","type":"address","internalType":"address"}],"stateMutability":"view"},{"type":"function","name":"lastEmittedFee","inputs":[],"outputs":[{"name":"","type":"uint24","internalType":"uint24"}],"stateMutability":"view"},{"type":"function","name":"lastEthereumPrice","inputs":[],"outputs":[{"name":"","type":"uint256","internalType":"uint256"}],"stateMutability":"view"},{"type":"function","name":"lastUnichainPrice","inputs":[],"outputs":[{"name":"","type":"uint256","internalType":"uint256"}],"stateMutability":"view"},{"type":"function","name":"pay","inputs":[{"name":"amount","type":"uint256","internalType":"uint256"}],"outputs":[],"stateMutability":"nonpayable"},{"type":"function","name":"positionEntryBlock","inputs":[{"name":"","type":"bytes32","internalType":"bytes32"}],"outputs":[{"name":"","type":"uint256","internalType":"uint256"}],"stateMutability":"view"},{"type":"function","name":"react","inputs":[{"name":"log","type":"tuple","internalType":"struct IReactive.LogRecord","components":[{"name":"chain_id","type":"uint256","internalType":"uint256"},{"name":"_contract","type":"address","internalType":"address"},{"name":"topic_0","type":"uint256","internalType":"uint256"},{"name":"topic_1","type":"uint256","internalType":"uint256"},{"name":"topic_2","type":"uint256","internalType":"uint256"},{"name":"topic_3","type":"uint256","internalType":"uint256"},{"name":"data","type":"bytes","internalType":"bytes"},{"name":"block_number","type":"uint256","internalType":"uint256"},{"name":"op_code","type":"uint256","internalType":"uint256"},{"name":"block_hash","type":"uint256","internalType":"uint256"},{"name":"tx_hash","type":"uint256","internalType":"uint256"},{"name":"log_index","type":"uint256","internalType":"uint256"}]}],"outputs":[],"stateMutability":"nonpayable"},{"type":"function","name":"sqrtPriceX96ToPrice","inputs":[{"name":"sqrtPriceX96","type":"uint160","internalType":"uint160"}],"outputs":[{"name":"","type":"uint256","internalType":"uint256"}],"stateMutability":"pure"},{"type":"function","name":"unichainPool","inputs":[],"outputs":[{"name":"","type":"address","internalType":"address"}],"stateMutability":"view"},{"type":"event","name":"Callback","inputs":[{"name":"chain_id","type":"uint256","indexed":true,"internalType":"uint256"},{"name":"_contract","type":"address","indexed":true,"internalType":"address"},{"name":"gas_limit","type":"uint64","indexed":true,"internalType":"uint64"},{"name":"payload","type":"bytes","indexed":false,"internalType":"bytes"}],"anonymous":false},{"type":"event","name":"DivergenceDetected","inputs":[{"name":"divergenceBps","type":"uint256","indexed":false,"internalType":"uint256"},{"name":"newFee","type":"uint24","indexed":false,"internalType":"uint24"}],"anonymous":false},{"type":"event","name":"LPDurationQualified","inputs":[{"name":"lp","type":"address","indexed":true,"internalType":"address"},{"name":"durationBlocks","type":"uint256","indexed":false,"internalType":"uint256"}],"anonymous":false},{"type":"event","name":"LPMintRecorded","inputs":[{"name":"lp","type":"address","indexed":true,"internalType":"address"},{"name":"positionKey","type":"bytes32","indexed":true,"internalType":"bytes32"},{"name":"blockNumber","type":"uint256","indexed":false,"internalType":"uint256"}],"anonymous":false},{"type":"event","name":"PriceUpdated","inputs":[{"name":"chain","type":"uint256","indexed":false,"internalType":"uint256"},{"name":"price","type":"uint256","indexed":false,"internalType":"uint256"}],"anonymous":false},{"type":"event","name":"PricesConverged","inputs":[],"anonymous":false}],"bytecode":{"object":"0x60c060405260405161168c38038061168c833981016040819052610022916103b9565b600280545f80546001600160a01b03191662ffffff908117825590819052600160208190527f82ea04094b91fdbcc6bc700815069948943553fb456ac308389bf83006127735805460ff191690911790553b156001600160a81b03199091161763ffffff00179055600380546001600160a01b038088166001600160a01b031992831617909255600480548784169083161790556005805492861692909116919091179055608082905260a081905260025460ff16610394576002546040516305a6aced60e41b8152600481018490526001600160a01b0387811660248301527fc42079f94a6350d7e6235f29174924f928cc2ac818eb64fed8004e115fbcca6760448301525f8051602061166c833981519152606483018190526084830181905260a483015261010090920490911690635a6aced09060c4015f604051808303815f87803b158015610173575f80fd5b505af1158015610185573d5f803e3d5ffd5b50506002546040516305a6aced60e41b8152600481018590526001600160a01b0388811660248301527f40e9cecb9f5f1f1c5b9c97dec2917b7ee92e57ba5563708daca94dd84ad7112f60448301525f8051602061166c833981519152606483018190526084830181905260a48301526101009092049091169250635a6aced0915060c4015f604051808303815f87803b158015610221575f80fd5b505af1158015610233573d5f803e3d5ffd5b50506002546040516305a6aced60e41b8152600481018690526001600160a01b0389811660248301527f7a53080ba414158be7ec69b987b5fb7d07dee101fe85488f0853ae16239d0bde60448301525f8051602061166c833981519152606483018190526084830181905260a48301526101009092049091169250635a6aced0915060c4015f604051808303815f87803b1580156102cf575f80fd5b505af11580156102e1573d5f803e3d5ffd5b50506002546040516305a6aced60e41b8152600481018690526001600160a01b0389811660248301527f0c396cd989a39f4459b5fa1aed6a9a8dcdbc45908acfd67e028cd568da98982c60448301525f8051602061166c833981519152606483018190526084830181905260a48301526101009092049091169250635a6aced0915060c4015f604051808303815f87803b15801561037d575f80fd5b505af115801561038f573d5f803e3d5ffd5b505050505b505050505061040b565b80516001600160a01b03811681146103b4575f80fd5b919050565b5f805f805f60a086880312156103cd575f80fd5b6103d68661039e565b94506103e46020870161039e565b93506103f26040870161039e565b6060870151608090970151959894975095949392505050565b60805160a05161120f61045d5f395f81816105070152818161082a0152818161085b01528181610ac901528181610d450152610f3201525f81816101ce0152818161079f01526107d0015261120f5ff3fe608060405260043610610191575f3560e01c8063763a2610116100dc578063bc063e1a11610087578063c4d5cdc011610062578063c4d5cdc014610471578063ed4ba596146104a4578063f91e595e146104c3578063fd342df7146104f6575f80fd5b8063bc063e1a1461041e578063bd7e2aa414610433578063c290d69114610452575f80fd5b8063a937faea116100b7578063a937faea146103d6578063aa52cba7146103eb578063aecb90951461040a575f80fd5b8063763a2610146103765780637a90b9901461038b5780638f55dda21461039f575f80fd5b806333d608f11161013c57806344d0ee491161011757806344d0ee49146103045780634fe2e2611461033757806372634fc71461034b575f80fd5b806333d608f11461028d5780633665c8b2146102bc5780633a5cbad5146102d1575f80fd5b80631a7ed5211161016c5780631a7ed521146102295780631f51589d146102495780632cec9d8d14610272575f80fd5b80630d152c2c1461019c5780630dd85b00146101bd5780631941e48b14610203575f80fd5b3661019857005b5f80fd5b3480156101a7575f80fd5b506101bb6101b6366004610f94565b610529565b005b3480156101c8575f80fd5b506101f07f000000000000000000000000000000000000000000000000000000000000000081565b6040519081526020015b60405180910390f35b34801561020e575f80fd5b50610217600381565b60405160ff90911681526020016101fa565b348015610234575f80fd5b50600854610217906301000000900460ff1681565b348015610254575f80fd5b5061025e6101f481565b60405162ffffff90911681526020016101fa565b34801561027d575f80fd5b5060085461025e9062ffffff1681565b348015610298575f80fd5b506102a3620493e081565b60405167ffffffffffffffff90911681526020016101fa565b3480156102c7575f80fd5b506101f060065481565b3480156102dc575f80fd5b506101f07f7a53080ba414158be7ec69b987b5fb7d07dee101fe85488f0853ae16239d0bde81565b34801561030f575f80fd5b506101f07fc42079f94a6350d7e6235f29174924f928cc2ac818eb64fed8004e115fbcca6781565b348015610342575f80fd5b506101f0600a81565b348015610356575f80fd5b506101f0610365366004610fd3565b60096020525f908152604090205481565b348015610381575f80fd5b506101f061c4e081565b348015610396575f80fd5b506101bb61064e565b3480156103aa575f80fd5b506003546103be906001600160a01b031681565b6040516001600160a01b0390911681526020016101fa565b3480156103e1575f80fd5b506101f060075481565b3480156103f6575f80fd5b506101f0610405366004611005565b6106d0565b348015610415575f80fd5b506101f0605081565b348015610429575f80fd5b5061025e61c35081565b34801561043e575f80fd5b506005546103be906001600160a01b031681565b34801561045d575f80fd5b506101bb61046c366004610fd3565b610708565b34801561047c575f80fd5b506101f07f40e9cecb9f5f1f1c5b9c97dec2917b7ee92e57ba5563708daca94dd84ad7112f81565b3480156104af575f80fd5b506004546103be906001600160a01b031681565b3480156104ce575f80fd5b506101f07f0c396cd989a39f4459b5fa1aed6a9a8dcdbc45908acfd67e028cd568da98982c81565b348015610501575f80fd5b506101f07f000000000000000000000000000000000000000000000000000000000000000081565b60025460ff166105805760405162461bcd60e51b815260206004820152600760248201527f564d206f6e6c790000000000000000000000000000000000000000000000000060448201526064015b60405180910390fd5b7fc42079f94a6350d7e6235f29174924f928cc2ac818eb64fed8004e115fbcca67816040013514806105d5575060408101357f40e9cecb9f5f1f1c5b9c97dec2917b7ee92e57ba5563708daca94dd84ad7112f145b156105e6576105e381610770565b50565b7f7a53080ba414158be7ec69b987b5fb7d07dee101fe85488f0853ae16239d0bde81604001350361061a576105e3816108d3565b7ff3c69326765c60bba64a05e5129565723243ba6f75302981fd732a97256767d46040820135016105e3576105e381610995565b5f80546040516326db15bb60e21b81523060048201526001600160a01b0390911690639b6c56ec90602401602060405180830381865afa158015610694573d5f803e3d5ffd5b505050506040513d601f19601f820116820180604052508101906106b8919061101e565b5f549091506105e3906001600160a01b031682610b26565b5f6001600160a01b0382166fffffffffffffffffffffffffffffffff602084901c1660806106fe8280611049565b901c949350505050565b335f9081526001602052604090205460ff166107665760405162461bcd60e51b815260206004820152601660248201527f417574686f72697a65642073656e646572206f6e6c79000000000000000000006044820152606401610577565b6105e33382610b26565b5f61077e60c0830183611066565b81019061078b91906110b0565b5050925050505f61079b826106d0565b90507f0000000000000000000000000000000000000000000000000000000000000000833503610828576006819055604080517f00000000000000000000000000000000000000000000000000000000000000008152602081018390527f945c1c4e99aa89f648fbfe3df471b916f719e16d960fcec0737d4d56bd696838910160405180910390a16108af565b7f00000000000000000000000000000000000000000000000000000000000000008335036108af576007819055604080517f00000000000000000000000000000000000000000000000000000000000000008152602081018390527f945c1c4e99aa89f648fbfe3df471b916f719e16d960fcec0737d4d56bd696838910160405180910390a15b5f6006541180156108c157505f600754115b156108ce576108ce610c39565b505050565b6040516060820135905f9061090990839060808601359060a0870135906020019283526020830191909152604082015260600190565b60405160208183030381529060405280519060200120905060095f8281526020019081526020015f20545f036108ce575f8181526009602090815260409182902060e086013590819055915191825282916001600160a01b038516917fb1e2bbd65d87b039bb5a9f8114f36f16f1b13e2e8330dea954ada93fbbf76bfe910160405180910390a3505050565b604080516060838101356020808401919091526080808601358486015260a0860135838501528451808503909301835290920183528051908201205f818152600990925291812054908190036109ea57505050565b5f6109f98260e0860135611123565b905061c4e0811015610a0b5750505050565b5f8381526009602052604080822091909155516060850135906001600160a01b038216907f4ee1a0f09752b33a39e5f3cbec5cc1a159c6f55938b0b7e1a35770f85db4e61090610a5e9085815260200190565b60405180910390a26040515f602482018190526001600160a01b03831660448301529060640160408051601f198184030181529181526020820180516001600160e01b0316632b33212b60e11b1790526005549051919250620493e0916001600160a01b03909116907f0000000000000000000000000000000000000000000000000000000000000000907f8dd725fa9d6cd150017ab9e60318d40616439424e2fade9c1c58854950917dfc90610b16908690611136565b60405180910390a4505050505050565b80471015610b765760405162461bcd60e51b815260206004820152601260248201527f496e73756666696369656e742066756e647300000000000000000000000000006044820152606401610577565b8015610c3557604080515f808252602082019092526001600160a01b038416908390604051610ba5919061116b565b5f6040518083038185875af1925050503d805f8114610bdf576040519150601f19603f3d011682016040523d82523d5f602084013e610be4565b606091505b50509050806108ce5760405162461bcd60e51b815260206004820152600f60248201527f5472616e73666572206661696c656400000000000000000000000000000000006044820152606401610577565b5050565b6006546007545f818311610c5657610c518383611123565b610c60565b610c608284611123565b90505f828411610c705782610c72565b835b9050805f03610c815750505050565b5f81610c8f84612710611049565b610c999190611181565b9050600a811015610da1576008805463ff00000019811690915562ffffff1615610d9c576008805462ffffff191690556040517f46eb2d34616c8da73c931c013d3a88c12bd0459ac635eb035850361d86f4210f905f90a16040515f602482018190529060440160408051601f198184030181529181526020820180516001600160e01b031663b017668960e01b1790526005549051919250620493e0916001600160a01b03909116907f0000000000000000000000000000000000000000000000000000000000000000907f8dd725fa9d6cd150017ab9e60318d40616439424e2fade9c1c58854950917dfc90610d92908690611136565b60405180910390a4505b610f8d565b6008546003630100000090910460ff161015610df157600880546301000000900460ff16906003610dd1836111a0565b91906101000a81548160ff021916908360ff160217905550505050505050565b5f60646050610e008480611049565b610e0a9190611049565b610e149190611181565b90505f61c3508211610e265781610e2a565b61c3505b6008549091505f9062ffffff90811690831611610e5957600854610e5490839062ffffff166111be565b610e6b565b600854610e6b9062ffffff16836111be565b90506101f462ffffff821610610f89576008805463ffffffff191662ffffff84169081179091556040805186815260208101929092527fe4a7541d58cedc644c756994e077336e8d2b11858da47e4d666cddfbc5ea2357910160405180910390a16040515f6024820181905262ffffff84166044830152606482018690529060840160408051601f198184030181529181526020820180516001600160e01b03166345a3307b60e11b1790526005549051919250620493e0916001600160a01b03909116907f0000000000000000000000000000000000000000000000000000000000000000907f8dd725fa9d6cd150017ab9e60318d40616439424e2fade9c1c58854950917dfc90610f7f908690611136565b60405180910390a4505b5050505b5050505050565b5f60208284031215610fa4575f80fd5b813567ffffffffffffffff811115610fba575f80fd5b82016101808185031215610fcc575f80fd5b9392505050565b5f60208284031215610fe3575f80fd5b5035919050565b80356001600160a01b0381168114611000575f80fd5b919050565b5f60208284031215611015575f80fd5b610fcc82610fea565b5f6020828403121561102e575f80fd5b5051919050565b634e487b7160e01b5f52601160045260245ffd5b808202811582820484141761106057611060611035565b92915050565b5f808335601e1984360301811261107b575f80fd5b83018035915067ffffffffffffffff821115611095575f80fd5b6020019150368190038213156110a9575f80fd5b9250929050565b5f805f805f60a086880312156110c4575f80fd5b85359450602086013593506110db60408701610fea565b925060608601356fffffffffffffffffffffffffffffffff811681146110ff575f80fd5b91506080860135600281900b8114611115575f80fd5b809150509295509295909350565b8181038181111561106057611060611035565b602081525f82518060208401528060208501604085015e5f604082850101526040601f19601f83011684010191505092915050565b5f82518060208501845e5f920191825250919050565b5f8261119b57634e487b7160e01b5f52601260045260245ffd5b500490565b5f60ff821660ff81036111b5576111b5611035565b60010192915050565b62ffffff82811682821603908111156110605761106061103556fea2646970667358221220092052b131a8375232c7c9c4cd91a83c665ad3ddfc2c4bac6601b6051023df0364736f6c634300081a0033a65f96fc951c35ead38878e0f0b7a3c744a6f5ccc1476b313353ce31712313ad","linkReferences":{}},"methodIdentifiers":{"BURN_TOPIC_0()":"f91e595e","CALLBACK_GAS_LIMIT()":"33d608f1","DEST_CHAIN_ID()":"fd342df7","DIVERGENCE_THRESHOLD_BPS()":"4fe2e261","FEE_CAPTURE_PERCENT()":"aecb9095","FEE_CHANGE_THRESHOLD()":"1f51589d","MAX_FEE()":"bc063e1a","MINT_TOPIC_0()":"3a5cbad5","MIN_DIVERGENCE_STREAK()":"1941e48b","MIN_LOYALTY_BLOCKS()":"763a2610","ORIGIN_CHAIN_ID()":"0dd85b00","V3_SWAP_TOPIC_0()":"44d0ee49","V4_SWAP_TOPIC_0()":"c4d5cdc0","callbackContract()":"bd7e2aa4","coverDebt()":"7a90b990","divergenceStreak()":"1a7ed521","ethereumPool()":"8f55dda2","lastEmittedFee()":"2cec9d8d","lastEthereumPrice()":"3665c8b2","lastUnichainPrice()":"a937faea","pay(uint256)":"c290d691","positionEntryBlock(bytes32)":"72634fc7","react((uint256,address,uint256,uint256,uint256,uint256,bytes,uint256,uint256,uint256,uint256,uint256))":"0d152c2c","sqrtPriceX96ToPrice(uint160)":"aa52cba7","unichainPool()":"ed4ba596"},"id":97}