{"abi":[{"type":"constructor","inputs":[{"name":"_manager","type":"address","internalType":"contract IPoolManager"}],"stateMutability":"nonpayable"},{"type":"function","name":"manager","inputs":[],"outputs":[{"name":"","type":"address","internalType":"contract IPoolManager"}],"stateMutability":"view"},{"type":"function","name":"take","inputs":[{"name":"key","type":"tuple","internalType":"struct PoolKey","components":[{"name":"currency0","type":"address","internalType":"Currency"},{"name":"currency1","type":"address","internalType":"Currency"},{"name":"fee","type":"uint24","internalType":"uint24"},{"name":"tickSpacing","type":"int24","internalType":"int24"},{"name":"hooks","type":"address","internalType":"contract IHooks"}]},{"name":"amount0","type":"uint256","internalType":"uint256"},{"name":"amount1","type":"uint256","internalType":"uint256"}],"outputs":[],"stateMutability":"payable"},{"type":"function","name":"unlockCallback","inputs":[{"name":"rawData","type":"bytes","internalType":"bytes"}],"outputs":[{"name":"","type":"bytes","internalType":"bytes"}],"stateMutability":"nonpayable"}],"bytecode":{"object":"0x60a0604052348015600e575f80fd5b50604051610f6e380380610f6e833981016040819052602b91603b565b6001600160a01b03166080526066565b5f60208284031215604a575f80fd5b81516001600160a01b0381168114605f575f80fd5b9392505050565b608051610ec76100a75f395f8181605d01528181610149015281816101f6015281816103100152818161052b0152818161058401526105b70152610ec75ff3fe608060405260043610610033575f3560e01c8063055419b614610037578063481c6a751461004c57806391dd73461461009c575b5f80fd5b61004a610045366004610c25565b6100c8565b005b348015610057575f80fd5b5061007f7f000000000000000000000000000000000000000000000000000000000000000081565b6040516001600160a01b0390911681526020015b60405180910390f35b3480156100a7575f80fd5b506100bb6100b6366004610c56565b6101e9565b6040516100939190610cc4565b60408051608080820183523380835260208084018881528486018881526060958601888152875180850195909552915180516001600160a01b03908116868a0152938101518416858801529687015162ffffff16848601529486015160020b60a08401529490920151821660c0820152915160e083015291516101008201527f0000000000000000000000000000000000000000000000000000000000000000909116906348c8949190610120016040516020818303038152906040526040518263ffffffff1660e01b81526004016101a19190610cc4565b5f604051808303815f875af11580156101bc573d5f803e3d5ffd5b505050506040513d5f823e601f3d908101601f191682016040526101e39190810190610cf9565b50505050565b6060336001600160a01b037f0000000000000000000000000000000000000000000000000000000000000000161461021f575f80fd5b5f61022c83850185610d8d565b6040810151909150156102515760208101515181516040830151610251929190610299565b60608101511561027557610275816020015160200151825f01518360600151610299565b604080515f6020820152016040516020818303038152906040529150505b92915050565b5f805f6102a786863061055d565b925092509250805f146103015760405162461bcd60e51b815260206004820152601d60248201527f64656c74614265666f7265206973206e6f7420657175616c20746f203000000060448201526064015b60405180910390fd5b6103376001600160a01b0387167f000000000000000000000000000000000000000000000000000000000000000087875f6105e9565b5f805f61034589893061055d565b925092509250610354876106fd565b61035d90610e14565b600f0b81146103d45760405162461bcd60e51b815260206004820152602d60248201527f64656c74614166746572206973206e6f7420657175616c20746f202d616d6f7560448201527f6e742e746f496e7431323828290000000000000000000000000000000000000060648201526084016102f8565b866103df8785610e41565b146104785760405162461bcd60e51b815260206004820152604c60248201527f74686520646966666572656e6365206265747765656e207573657242616c416660448201527f74657220616e64207573657242616c4265666f7265206973206e6f742065717560648201527f616c20746f20616d6f756e740000000000000000000000000000000000000000608482015260a4016102f8565b866104838387610e41565b1461051c5760405162461bcd60e51b815260206004820152604860248201527f74686520646966666572656e6365206265747765656e20706d42616c4265666f60448201527f726520616e6420706d42616c4166746572206973206e6f7420657175616c207460648201527f6f20616d6f756e74000000000000000000000000000000000000000000000000608482015260a4016102f8565b6105526001600160a01b038a167f00000000000000000000000000000000000000000000000000000000000000008a8a5f610729565b505050505050505050565b5f80806105736001600160a01b038716866109de565b92506105a86001600160a01b0387167f00000000000000000000000000000000000000000000000000000000000000006109de565b91506105de6001600160a01b037f0000000000000000000000000000000000000000000000000000000000000000168588610a6d565b905093509350939050565b8061065957604051630b0d9c0960e01b81526001600160a01b038681166004830152848116602483015260448201849052851690630b0d9c09906064015b5f604051808303815f87803b15801561063e575f80fd5b505af1158015610650573d5f803e3d5ffd5b505050506106f6565b836001600160a01b031663156e29f684610682886001600160a01b03166001600160a01b031690565b6040517fffffffff0000000000000000000000000000000000000000000000000000000060e085901b1681526001600160a01b0390921660048301526024820152604481018590526064015f604051808303815f87803b1580156106e4575f80fd5b505af1158015610552573d5f803e3d5ffd5b5050505050565b5f6f800000000000000000000000000000008210610725576107256393dafdf160e01b610b04565b5090565b80156107a857836001600160a01b031663f5298aca84610758886001600160a01b03166001600160a01b031690565b6040517fffffffff0000000000000000000000000000000000000000000000000000000060e085901b1681526001600160a01b039092166004830152602482015260448101859052606401610627565b6001600160a01b03851661081f57836001600160a01b03166311da60b4836040518263ffffffff1660e01b815260040160206040518083038185885af11580156107f4573d5f803e3d5ffd5b50505050506040513d601f19601f820116820180604052508101906108199190610e54565b506106f6565b604051632961046560e21b81526001600160a01b03868116600483015285169063a5841194906024015f604051808303815f87803b15801561085f575f80fd5b505af1158015610871573d5f803e3d5ffd5b505050506001600160a01b0383163014610903576040516323b872dd60e01b81526001600160a01b0384811660048301528581166024830152604482018490528616906323b872dd906064016020604051808303815f875af11580156108d9573d5f803e3d5ffd5b505050506040513d601f19601f820116820180604052508101906108fd9190610e6b565b50610975565b60405163a9059cbb60e01b81526001600160a01b0385811660048301526024820184905286169063a9059cbb906044016020604051808303815f875af115801561094f573d5f803e3d5ffd5b505050506040513d601f19601f820116820180604052508101906109739190610e6b565b505b836001600160a01b03166311da60b46040518163ffffffff1660e01b81526004016020604051808303815f875af11580156109b2573d5f803e3d5ffd5b505050506040513d601f19601f820116820180604052508101906109d69190610e54565b505050505050565b5f6001600160a01b0383166109fe57506001600160a01b03811631610293565b6040516370a0823160e01b81526001600160a01b0383811660048301528416906370a0823190602401602060405180830381865afa158015610a42573d5f803e3d5ffd5b505050506040513d601f19601f82011682018060405250810190610a669190610e54565b9050610293565b5f806001600160a01b0384165f526001600160a01b03831660205260405f209050846001600160a01b031663f135baaa826040518263ffffffff1660e01b8152600401610abc91815260200190565b602060405180830381865afa158015610ad7573d5f803e3d5ffd5b505050506040513d601f19601f82011682018060405250810190610afb9190610e54565b95945050505050565b805f5260045ffd5b634e487b7160e01b5f52604160045260245ffd5b60405160a0810167ffffffffffffffff81118282101715610b4357610b43610b0c565b60405290565b604051601f8201601f1916810167ffffffffffffffff81118282101715610b7257610b72610b0c565b604052919050565b6001600160a01b0381168114610b8e575f80fd5b50565b8035610b9c81610b7a565b919050565b5f60a08284031215610bb1575f80fd5b610bb9610b20565b90508135610bc681610b7a565b81526020820135610bd681610b7a565b6020820152604082013562ffffff81168114610bf0575f80fd5b60408201526060820135600281900b8114610c09575f80fd5b6060820152610c1a60808301610b91565b608082015292915050565b5f805f60e08486031215610c37575f80fd5b610c418585610ba1565b9560a0850135955060c0909401359392505050565b5f8060208385031215610c67575f80fd5b823567ffffffffffffffff811115610c7d575f80fd5b8301601f81018513610c8d575f80fd5b803567ffffffffffffffff811115610ca3575f80fd5b856020828401011115610cb4575f80fd5b6020919091019590945092505050565b602081525f82518060208401528060208501604085015e5f604082850101526040601f19601f83011684010191505092915050565b5f60208284031215610d09575f80fd5b815167ffffffffffffffff811115610d1f575f80fd5b8201601f81018413610d2f575f80fd5b805167ffffffffffffffff811115610d4957610d49610b0c565b610d5c601f8201601f1916602001610b49565b818152856020838501011115610d70575f80fd5b8160208401602083015e5f91810160200191909152949350505050565b5f610100828403128015610d9f575f80fd5b506040516080810167ffffffffffffffff81118282101715610dc357610dc3610b0c565b6040528235610dd181610b7a565b8152610de08460208501610ba1565b602082015260c0830135604082015260e090920135606083015250919050565b634e487b7160e01b5f52601160045260245ffd5b5f81600f0b6f7fffffffffffffffffffffffffffffff198103610e3957610e39610e00565b5f0392915050565b8181038181111561029357610293610e00565b5f60208284031215610e64575f80fd5b5051919050565b5f60208284031215610e7b575f80fd5b81518015158114610e8a575f80fd5b939250505056fea2646970667358221220f0bde6ae8c4671e51e08702d26daa3d126edb01c64d07bca17b354e9c57427f664736f6c634300081a0033","linkReferences":{}},"methodIdentifiers":{"manager()":"481c6a75","take((address,address,uint24,int24,address),uint256,uint256)":"055419b6","unlockCallback(bytes)":"91dd7346"},"id":77}