{"abi":[{"type":"constructor","inputs":[{"name":"_manager","type":"address","internalType":"contract IPoolManager"}],"stateMutability":"nonpayable"},{"type":"function","name":"donate","inputs":[{"name":"key","type":"tuple","internalType":"struct PoolKey","components":[{"name":"currency0","type":"address","internalType":"Currency"},{"name":"currency1","type":"address","internalType":"Currency"},{"name":"fee","type":"uint24","internalType":"uint24"},{"name":"tickSpacing","type":"int24","internalType":"int24"},{"name":"hooks","type":"address","internalType":"contract IHooks"}]},{"name":"amount0","type":"uint256","internalType":"uint256"},{"name":"amount1","type":"uint256","internalType":"uint256"},{"name":"hookData","type":"bytes","internalType":"bytes"}],"outputs":[{"name":"delta","type":"int256","internalType":"BalanceDelta"}],"stateMutability":"payable"},{"type":"function","name":"manager","inputs":[],"outputs":[{"name":"","type":"address","internalType":"contract IPoolManager"}],"stateMutability":"view"},{"type":"function","name":"unlockCallback","inputs":[{"name":"rawData","type":"bytes","internalType":"bytes"}],"outputs":[{"name":"","type":"bytes","internalType":"bytes"}],"stateMutability":"nonpayable"}],"bytecode":{"object":"0x60a0604052348015600e575f80fd5b506040516112eb3803806112eb833981016040819052602b91603b565b6001600160a01b03166080526066565b5f60208284031215604a575f80fd5b81516001600160a01b0381168114605f575f80fd5b9392505050565b6080516112306100bb5f395f8181606e0152818160d7015281816101ee01528181610300015281816104eb0152818161053c015281816105a1015281816105ec01528181610709015261073c01526112305ff3fe608060405260043610610033575f3560e01c8063234266d714610037578063481c6a751461005d57806391dd7346146100a8575b5f80fd5b61004a610045366004610e3c565b6100d4565b6040519081526020015b60405180910390f35b348015610068575f80fd5b506100907f000000000000000000000000000000000000000000000000000000000000000081565b6040516001600160a01b039091168152602001610054565b3480156100b3575f80fd5b506100c76100c2366004610e9b565b6101e1565b6040516100549190610f37565b5f7f00000000000000000000000000000000000000000000000000000000000000006001600160a01b03166348c894916040518060a00160405280336001600160a01b03168152602001888152602001878152602001868152602001858152506040516020016101449190610f50565b6040516020818303038152906040526040518263ffffffff1660e01b815260040161016f9190610f37565b5f604051808303815f875af115801561018a573d5f803e3d5ffd5b505050506040513d5f823e601f3d908101601f191682016040526101b19190810190610ffd565b8060200190518101906101c49190611072565b90504780156101d8576101d85f338361063d565b50949350505050565b6060336001600160a01b037f00000000000000000000000000000000000000000000000000000000000000001614610217575f80fd5b5f61022483850185611089565b90505f61023c82602001515f0151835f0151306106e2565b925050505f610257836020015160200151845f0151306106e2565b92505050815f146102af5760405162461bcd60e51b815260206004820152601560248201527f64656c74614265666f726530206973206e6f742030000000000000000000000060448201526064015b60405180910390fd5b80156102fd5760405162461bcd60e51b815260206004820152601560248201527f64656c74614265666f726531206973206e6f742030000000000000000000000060448201526064016102a6565b5f7f00000000000000000000000000000000000000000000000000000000000000006001600160a01b031663234266d785602001518660400151876060015188608001516040518563ffffffff1660e01b81526004016103609493929190611130565b6020604051808303815f875af115801561037c573d5f803e3d5ffd5b505050506040513d601f19601f820116820180604052508101906103a09190611072565b90505f6103b885602001515f0151865f0151306106e2565b925050505f6103d3866020015160200151875f0151306106e2565b9250505085604001516103e5906111b5565b82146104595760405162461bcd60e51b815260206004820152603160248201527f64656c7461416674657230206973206e6f7420657175616c20746f202d696e7460448201527f32353628646174612e616d6f756e74302900000000000000000000000000000060648201526084016102a6565b8560600151610467906111b5565b81146104db5760405162461bcd60e51b815260206004820152603160248201527f64656c7461416674657231206973206e6f7420657175616c20746f202d696e7460448201527f32353628646174612e616d6f756e74312900000000000000000000000000000060648201526084016102a6565b5f82121561052c57855161052c907f000000000000000000000000000000000000000000000000000000000000000090610514856111b5565b60208a0151516001600160a01b03169291905f61076e565b5f81121561057f57855161057f907f000000000000000000000000000000000000000000000000000000000000000090610565846111b5565b6020808b015101516001600160a01b03169291905f61076e565b5f8213156105c85785516020870151516105c8916001600160a01b03909116907f000000000000000000000000000000000000000000000000000000000000000090855f610a3a565b5f8113156106135785516020808801510151610613916001600160a01b03909116907f000000000000000000000000000000000000000000000000000000000000000090845f610a3a565b60408051602081018590520160405160208183030381529060405296505050505050505b92915050565b5f6001600160a01b038416610672575f805f8085875af190508061066d5761066d835f633d2cec6f60e21b610b0c565b6106dc565b60405163a9059cbb60e01b81526001600160a01b038416600482015282602482015260205f6044835f895af13d15601f3d1160015f511416171691505f81525f60208201525f604082015250806106dc576106dc8463a9059cbb60e01b633c9fd93960e21b610b0c565b50505050565b5f80806106f86001600160a01b03871686610b84565b925061072d6001600160a01b0387167f0000000000000000000000000000000000000000000000000000000000000000610b84565b91506107636001600160a01b037f0000000000000000000000000000000000000000000000000000000000000000168588610c13565b905093509350939050565b801561080357836001600160a01b031663f5298aca8461079d886001600160a01b03166001600160a01b031690565b6040516001600160e01b031960e085901b1681526001600160a01b0390921660048301526024820152604481018590526064015b5f604051808303815f87803b1580156107e8575f80fd5b505af11580156107fa573d5f803e3d5ffd5b50505050610a33565b6001600160a01b03851661087a57836001600160a01b03166311da60b4836040518263ffffffff1660e01b815260040160206040518083038185885af115801561084f573d5f803e3d5ffd5b50505050506040513d601f19601f820116820180604052508101906108749190611072565b50610a33565b604051632961046560e21b81526001600160a01b03868116600483015285169063a5841194906024015f604051808303815f87803b1580156108ba575f80fd5b505af11580156108cc573d5f803e3d5ffd5b505050506001600160a01b038316301461095e576040516323b872dd60e01b81526001600160a01b0384811660048301528581166024830152604482018490528616906323b872dd906064016020604051808303815f875af1158015610934573d5f803e3d5ffd5b505050506040513d601f19601f8201168201806040525081019061095891906111db565b506109d0565b60405163a9059cbb60e01b81526001600160a01b0385811660048301526024820184905286169063a9059cbb906044016020604051808303815f875af11580156109aa573d5f803e3d5ffd5b505050506040513d601f19601f820116820180604052508101906109ce91906111db565b505b836001600160a01b03166311da60b46040518163ffffffff1660e01b81526004016020604051808303815f875af1158015610a0d573d5f803e3d5ffd5b505050506040513d601f19601f82011682018060405250810190610a319190611072565b505b5050505050565b80610a7c57604051630b0d9c0960e01b81526001600160a01b038681166004830152848116602483015260448201849052851690630b0d9c09906064016107d1565b836001600160a01b031663156e29f684610aa5886001600160a01b03166001600160a01b031690565b6040516001600160e01b031960e085901b1681526001600160a01b0390921660048301526024820152604481018590526064015f604051808303815f87803b158015610aef575f80fd5b505af1158015610b01573d5f803e3d5ffd5b505050505050505050565b6040516390bfb86560e01b8082526001600160a01b03851660048301526001600160e01b031984166024830152608060448301526020601f3d018190040260a0810160648401523d608484015290913d5f60a483013e60048260a4018201526001600160e01b031984168260c4018201528160e40181fd5b5f6001600160a01b038316610ba457506001600160a01b03811631610637565b6040516370a0823160e01b81526001600160a01b0383811660048301528416906370a0823190602401602060405180830381865afa158015610be8573d5f803e3d5ffd5b505050506040513d601f19601f82011682018060405250810190610c0c9190611072565b9050610637565b5f806001600160a01b0384165f526001600160a01b03831660205260405f209050846001600160a01b031663f135baaa826040518263ffffffff1660e01b8152600401610c6291815260200190565b602060405180830381865afa158015610c7d573d5f803e3d5ffd5b505050506040513d601f19601f82011682018060405250810190610ca19190611072565b95945050505050565b634e487b7160e01b5f52604160045260245ffd5b60405160a0810167ffffffffffffffff81118282101715610ce157610ce1610caa565b60405290565b604051601f8201601f1916810167ffffffffffffffff81118282101715610d1057610d10610caa565b604052919050565b6001600160a01b0381168114610d2c575f80fd5b50565b8035610d3a81610d18565b919050565b5f60a08284031215610d4f575f80fd5b610d57610cbe565b90508135610d6481610d18565b81526020820135610d7481610d18565b6020820152604082013562ffffff81168114610d8e575f80fd5b60408201526060820135600281900b8114610da7575f80fd5b6060820152610db860808301610d2f565b608082015292915050565b5f67ffffffffffffffff821115610ddc57610ddc610caa565b50601f01601f191660200190565b5f82601f830112610df9575f80fd5b8135610e0c610e0782610dc3565b610ce7565b818152846020838601011115610e20575f80fd5b816020850160208301375f918101602001919091529392505050565b5f805f806101008587031215610e50575f80fd5b610e5a8686610d3f565b935060a0850135925060c0850135915060e085013567ffffffffffffffff811115610e83575f80fd5b610e8f87828801610dea565b91505092959194509250565b5f8060208385031215610eac575f80fd5b823567ffffffffffffffff811115610ec2575f80fd5b8301601f81018513610ed2575f80fd5b803567ffffffffffffffff811115610ee8575f80fd5b856020828401011115610ef9575f80fd5b6020919091019590945092505050565b5f81518084528060208401602086015e5f602082860101526020601f19601f83011685010191505092915050565b602081525f610f496020830184610f09565b9392505050565b602081526001600160a01b0382511660208201525f6020830151610fc560408401826001600160a01b0381511682526001600160a01b03602082015116602083015262ffffff6040820151166040830152606081015160020b60608301526001600160a01b0360808201511660808301525050565b50604083015160e08301526060830151610100830152608083015161012080840152610ff5610140840182610f09565b949350505050565b5f6020828403121561100d575f80fd5b815167ffffffffffffffff811115611023575f80fd5b8201601f81018413611033575f80fd5b8051611041610e0782610dc3565b818152856020838501011115611055575f80fd5b8160208401602083015e5f91810160200191909152949350505050565b5f60208284031215611082575f80fd5b5051919050565b5f60208284031215611099575f80fd5b813567ffffffffffffffff8111156110af575f80fd5b820161012081850312156110c1575f80fd5b6110c9610cbe565b81356110d481610d18565b81526110e38560208401610d3f565b602082015260c0820135604082015260e0820135606082015261010082013567ffffffffffffffff811115611116575f80fd5b61112286828501610dea565b608083015250949350505050565b61118881866001600160a01b0381511682526001600160a01b03602082015116602083015262ffffff6040820151166040830152606081015160020b60608301526001600160a01b0360808201511660808301525050565b8360a08201528260c082015261010060e08201525f6111ab610100830184610f09565b9695505050505050565b5f600160ff1b82016111d557634e487b7160e01b5f52601160045260245ffd5b505f0390565b5f602082840312156111eb575f80fd5b81518015158114610f49575f80fdfea2646970667358221220289faf25c12c677b3cc1048f3c8c596dc3b18dca0e4cce4854fb65640e8c809d64736f6c634300081a0033","linkReferences":{}},"methodIdentifiers":{"donate((address,address,uint24,int24,address),uint256,uint256,bytes)":"234266d7","manager()":"481c6a75","unlockCallback(bytes)":"91dd7346"},"id":72}