{"abi":[{"type":"constructor","inputs":[{"name":"_manager","type":"address","internalType":"contract IPoolManager"}],"stateMutability":"nonpayable"},{"type":"function","name":"deposit","inputs":[{"name":"currency","type":"address","internalType":"Currency"},{"name":"user","type":"address","internalType":"address"},{"name":"amount","type":"uint256","internalType":"uint256"}],"outputs":[],"stateMutability":"payable"},{"type":"function","name":"manager","inputs":[],"outputs":[{"name":"","type":"address","internalType":"contract IPoolManager"}],"stateMutability":"view"},{"type":"function","name":"unlockCallback","inputs":[{"name":"rawData","type":"bytes","internalType":"bytes"}],"outputs":[{"name":"","type":"bytes","internalType":"bytes"}],"stateMutability":"nonpayable"},{"type":"function","name":"withdraw","inputs":[{"name":"currency","type":"address","internalType":"Currency"},{"name":"user","type":"address","internalType":"address"},{"name":"amount","type":"uint256","internalType":"uint256"}],"outputs":[],"stateMutability":"payable"}],"bytecode":{"object":"0x60a0604052348015600e575f80fd5b50604051610b93380380610b93833981016040819052602b91603b565b6001600160a01b03166080526066565b5f60208284031215604a575f80fd5b81516001600160a01b0381168114605f575f80fd5b9392505050565b608051610ae56100ae5f395f8181605301528181610152015281816101fd0152818161024401528181610293015281816102e601528181610335015261040c0152610ae55ff3fe60806040526004361061003e575f3560e01c8063481c6a75146100425780638340f5491461009257806391dd7346146100a7578063d9caed12146100d3575b5f80fd5b34801561004d575f80fd5b506100757f000000000000000000000000000000000000000000000000000000000000000081565b6040516001600160a01b0390911681526020015b60405180910390f35b6100a56100a0366004610820565b6100e6565b005b3480156100b2575f80fd5b506100c66100c136600461085e565b6101f0565b60405161008991906108cc565b6100a56100e1366004610820565b6103a1565b6040805160a08082018352338083526001600160a01b03868116602080860191825289831686880190815260608088018a815260016080998a019081528a51948501979097529351851698830198909852518316968101969096525193850193909352511515908301527f000000000000000000000000000000000000000000000000000000000000000016906348c894919060c0015b6040516020818303038152906040526040518263ffffffff1660e01b81526004016101a891906108cc565b5f604051808303815f875af11580156101c3573d5f803e3d5ffd5b505050506040513d5f823e601f3d908101601f191682016040526101ea9190810190610946565b50505050565b6060336001600160a01b037f00000000000000000000000000000000000000000000000000000000000000001614610226575f80fd5b5f610233838501856109e7565b90508060800151156102e15761028e7f000000000000000000000000000000000000000000000000000000000000000082602001518360600151600185604001516001600160a01b031661043b90949392919063ffffffff16565b6102dc7f0000000000000000000000000000000000000000000000000000000000000000826020015183606001515f85604001516001600160a01b031661055490949392919063ffffffff16565b61037e565b6103307f000000000000000000000000000000000000000000000000000000000000000082602001518360600151600185604001516001600160a01b031661055490949392919063ffffffff16565b61037e7f0000000000000000000000000000000000000000000000000000000000000000826020015183606001515f85604001516001600160a01b031661043b90949392919063ffffffff16565b604080515f60208201520160405160208183030381529060405291505092915050565b6040805160a08082018352338083526001600160a01b03868116602080860191825289831686880190815260608088018a81525f6080998a019081528a51948501979097529351851698830198909852518316968101969096525193850193909352511515908301527f000000000000000000000000000000000000000000000000000000000000000016906348c894919060c00161017d565b806104ab57604051630b0d9c0960e01b81526001600160a01b038681166004830152848116602483015260448201849052851690630b0d9c09906064015b5f604051808303815f87803b158015610490575f80fd5b505af11580156104a2573d5f803e3d5ffd5b5050505061054d565b836001600160a01b031663156e29f6846104d4886001600160a01b03166001600160a01b031690565b6040517fffffffff0000000000000000000000000000000000000000000000000000000060e085901b1681526001600160a01b0390921660048301526024820152604481018590526064015f604051808303815f87803b158015610536575f80fd5b505af1158015610548573d5f803e3d5ffd5b505050505b5050505050565b80156105d357836001600160a01b031663f5298aca84610583886001600160a01b03166001600160a01b031690565b6040517fffffffff0000000000000000000000000000000000000000000000000000000060e085901b1681526001600160a01b039092166004830152602482015260448101859052606401610479565b6001600160a01b03851661064a57836001600160a01b03166311da60b4836040518263ffffffff1660e01b815260040160206040518083038185885af115801561061f573d5f803e3d5ffd5b50505050506040513d601f19601f820116820180604052508101906106449190610a76565b5061054d565b604051632961046560e21b81526001600160a01b03868116600483015285169063a5841194906024015f604051808303815f87803b15801561068a575f80fd5b505af115801561069c573d5f803e3d5ffd5b505050506001600160a01b038316301461072e576040516323b872dd60e01b81526001600160a01b0384811660048301528581166024830152604482018490528616906323b872dd906064016020604051808303815f875af1158015610704573d5f803e3d5ffd5b505050506040513d601f19601f820116820180604052508101906107289190610a8d565b506107a0565b60405163a9059cbb60e01b81526001600160a01b0385811660048301526024820184905286169063a9059cbb906044016020604051808303815f875af115801561077a573d5f803e3d5ffd5b505050506040513d601f19601f8201168201806040525081019061079e9190610a8d565b505b836001600160a01b03166311da60b46040518163ffffffff1660e01b81526004016020604051808303815f875af11580156107dd573d5f803e3d5ffd5b505050506040513d601f19601f820116820180604052508101906108019190610a76565b505050505050565b6001600160a01b038116811461081d575f80fd5b50565b5f805f60608486031215610832575f80fd5b833561083d81610809565b9250602084013561084d81610809565b929592945050506040919091013590565b5f806020838503121561086f575f80fd5b823567ffffffffffffffff811115610885575f80fd5b8301601f81018513610895575f80fd5b803567ffffffffffffffff8111156108ab575f80fd5b8560208284010111156108bc575f80fd5b6020919091019590945092505050565b602081525f82518060208401528060208501604085015e5f604082850101526040601f19601f83011684010191505092915050565b634e487b7160e01b5f52604160045260245ffd5b604051601f8201601f1916810167ffffffffffffffff8111828210171561093e5761093e610901565b604052919050565b5f60208284031215610956575f80fd5b815167ffffffffffffffff81111561096c575f80fd5b8201601f8101841361097c575f80fd5b805167ffffffffffffffff81111561099657610996610901565b6109a9601f8201601f1916602001610915565b8181528560208385010111156109bd575f80fd5b8160208401602083015e5f91810160200191909152949350505050565b801515811461081d575f80fd5b5f60a08284031280156109f8575f80fd5b5060405160a0810167ffffffffffffffff81118282101715610a1c57610a1c610901565b6040528235610a2a81610809565b81526020830135610a3a81610809565b60208201526040830135610a4d81610809565b6040820152606083810135908201526080830135610a6a816109da565b60808201529392505050565b5f60208284031215610a86575f80fd5b5051919050565b5f60208284031215610a9d575f80fd5b8151610aa8816109da565b939250505056fea26469706673582212209045af60436c069790edcaa7bd4c4b86144c08763034cb55013b7abcb25209ea64736f6c634300081a0033","linkReferences":{}},"methodIdentifiers":{"deposit(address,address,uint256)":"8340f549","manager()":"481c6a75","unlockCallback(bytes)":"91dd7346","withdraw(address,address,uint256)":"d9caed12"},"id":71}