{"abi":[{"type":"function","name":"SQRT_PRICE_10000_100","inputs":[],"outputs":[{"name":"","type":"uint160","internalType":"uint160"}],"stateMutability":"view"},{"type":"function","name":"SQRT_PRICE_1000_100","inputs":[],"outputs":[{"name":"","type":"uint160","internalType":"uint160"}],"stateMutability":"view"},{"type":"function","name":"SQRT_PRICE_1010_100","inputs":[],"outputs":[{"name":"","type":"uint160","internalType":"uint160"}],"stateMutability":"view"},{"type":"function","name":"SQRT_PRICE_101_100","inputs":[],"outputs":[{"name":"","type":"uint160","internalType":"uint160"}],"stateMutability":"view"},{"type":"function","name":"SQRT_PRICE_121_100","inputs":[],"outputs":[{"name":"","type":"uint160","internalType":"uint160"}],"stateMutability":"view"},{"type":"function","name":"SQRT_PRICE_1_1","inputs":[],"outputs":[{"name":"","type":"uint160","internalType":"uint160"}],"stateMutability":"view"},{"type":"function","name":"SQRT_PRICE_1_2","inputs":[],"outputs":[{"name":"","type":"uint160","internalType":"uint160"}],"stateMutability":"view"},{"type":"function","name":"SQRT_PRICE_1_4","inputs":[],"outputs":[{"name":"","type":"uint160","internalType":"uint160"}],"stateMutability":"view"},{"type":"function","name":"SQRT_PRICE_2_1","inputs":[],"outputs":[{"name":"","type":"uint160","internalType":"uint160"}],"stateMutability":"view"},{"type":"function","name":"SQRT_PRICE_4_1","inputs":[],"outputs":[{"name":"","type":"uint160","internalType":"uint160"}],"stateMutability":"view"},{"type":"function","name":"SQRT_PRICE_99_100","inputs":[],"outputs":[{"name":"","type":"uint160","internalType":"uint160"}],"stateMutability":"view"},{"type":"function","name":"SQRT_PRICE_99_1000","inputs":[],"outputs":[{"name":"","type":"uint160","internalType":"uint160"}],"stateMutability":"view"}],"bytecode":{"object":"0x610229610034600b8282823980515f1a607314602857634e487b7160e01b5f525f60045260245ffd5b305f52607381538281f3fe73000000000000000000000000000000000000000030146080604052600436106100da575f3560e01c8063ae366da711610088578063e282efb711610063578063e282efb7146101b8578063ed318160146101cc578063fcc6433b146101df575f80fd5b8063ae366da71461017e578063bbc49a6e14610191578063bd5e4184146101a5575f80fd5b806398ec04cc116100b857806398ec04cc14610143578063a318580114610157578063a96bfbf21461016b575f80fd5b8063328b22b4146100de57806388c8f2251461011b5780638a81a2de1461012f575b5f80fd5b6100f26c010146dd68287f35899f20af6781565b60405173ffffffffffffffffffffffffffffffffffffffff909116815260200160405180910390f35b6100f26c032d94aa8d0f912742a3fc34e181565b6100f26c0200000000000000000000000081565b6100f26c016a09e667f3bcc908b2fb136681565b6100f26c0a00000000000000000000000081565b6100f26b508c6bc6cb3b01636bd290d181565b6100f26bfeb77f264dc5273ef5e2f75b81565b6100f26c03298b075b4b6a52409457906181565b6100f26bb504f333f9de6484597d89b381565b6100f26c0119999999999999999999999981565b6100f26b80000000000000000000000081565b6100f26c010000000000000000000000008156fea26469706673582212202426b6db23931e9c2411c878baaeae730f1c500fa92ebd168e5150f951f31e5564736f6c634300081a0033","linkReferences":{}},"methodIdentifiers":{"SQRT_PRICE_10000_100()":"a3185801","SQRT_PRICE_1000_100()":"bbc49a6e","SQRT_PRICE_1010_100()":"88c8f225","SQRT_PRICE_101_100()":"328b22b4","SQRT_PRICE_121_100()":"e282efb7","SQRT_PRICE_1_1()":"fcc6433b","SQRT_PRICE_1_2()":"bd5e4184","SQRT_PRICE_1_4()":"ed318160","SQRT_PRICE_2_1()":"98ec04cc","SQRT_PRICE_4_1()":"8a81a2de","SQRT_PRICE_99_100()":"ae366da7","SQRT_PRICE_99_1000()":"a96bfbf2"},"id":87}