{"abi":[{"type":"constructor","inputs":[{"name":"initialOwner","type":"address","internalType":"address"}],"stateMutability":"nonpayable"},{"type":"function","name":"allowance","inputs":[{"name":"owner","type":"address","internalType":"address"},{"name":"spender","type":"address","internalType":"address"},{"name":"id","type":"uint256","internalType":"uint256"}],"outputs":[{"name":"amount","type":"uint256","internalType":"uint256"}],"stateMutability":"view"},{"type":"function","name":"approve","inputs":[{"name":"spender","type":"address","internalType":"address"},{"name":"id","type":"uint256","internalType":"uint256"},{"name":"amount","type":"uint256","internalType":"uint256"}],"outputs":[{"name":"","type":"bool","internalType":"bool"}],"stateMutability":"nonpayable"},{"type":"function","name":"balanceOf","inputs":[{"name":"owner","type":"address","internalType":"address"},{"name":"id","type":"uint256","internalType":"uint256"}],"outputs":[{"name":"balance","type":"uint256","internalType":"uint256"}],"stateMutability":"view"},{"type":"function","name":"burn","inputs":[{"name":"from","type":"address","internalType":"address"},{"name":"id","type":"uint256","internalType":"uint256"},{"name":"amount","type":"uint256","internalType":"uint256"}],"outputs":[],"stateMutability":"nonpayable"},{"type":"function","name":"clear","inputs":[{"name":"currency","type":"address","internalType":"Currency"},{"name":"amount","type":"uint256","internalType":"uint256"}],"outputs":[],"stateMutability":"nonpayable"},{"type":"function","name":"collectProtocolFees","inputs":[{"name":"recipient","type":"address","internalType":"address"},{"name":"currency","type":"address","internalType":"Currency"},{"name":"amount","type":"uint256","internalType":"uint256"}],"outputs":[{"name":"amountCollected","type":"uint256","internalType":"uint256"}],"stateMutability":"nonpayable"},{"type":"function","name":"donate","inputs":[{"name":"key","type":"tuple","internalType":"struct PoolKey","components":[{"name":"currency0","type":"address","internalType":"Currency"},{"name":"currency1","type":"address","internalType":"Currency"},{"name":"fee","type":"uint24","internalType":"uint24"},{"name":"tickSpacing","type":"int24","internalType":"int24"},{"name":"hooks","type":"address","internalType":"contract IHooks"}]},{"name":"amount0","type":"uint256","internalType":"uint256"},{"name":"amount1","type":"uint256","internalType":"uint256"},{"name":"hookData","type":"bytes","internalType":"bytes"}],"outputs":[{"name":"delta","type":"int256","internalType":"BalanceDelta"}],"stateMutability":"nonpayable"},{"type":"function","name":"extsload","inputs":[{"name":"slot","type":"bytes32","internalType":"bytes32"}],"outputs":[{"name":"","type":"bytes32","internalType":"bytes32"}],"stateMutability":"view"},{"type":"function","name":"extsload","inputs":[{"name":"startSlot","type":"bytes32","internalType":"bytes32"},{"name":"nSlots","type":"uint256","internalType":"uint256"}],"outputs":[{"name":"","type":"bytes32[]","internalType":"bytes32[]"}],"stateMutability":"view"},{"type":"function","name":"extsload","inputs":[{"name":"slots","type":"bytes32[]","internalType":"bytes32[]"}],"outputs":[{"name":"","type":"bytes32[]","internalType":"bytes32[]"}],"stateMutability":"view"},{"type":"function","name":"exttload","inputs":[{"name":"slots","type":"bytes32[]","internalType":"bytes32[]"}],"outputs":[{"name":"","type":"bytes32[]","internalType":"bytes32[]"}],"stateMutability":"view"},{"type":"function","name":"exttload","inputs":[{"name":"slot","type":"bytes32","internalType":"bytes32"}],"outputs":[{"name":"","type":"bytes32","internalType":"bytes32"}],"stateMutability":"view"},{"type":"function","name":"initialize","inputs":[{"name":"key","type":"tuple","internalType":"struct PoolKey","components":[{"name":"currency0","type":"address","internalType":"Currency"},{"name":"currency1","type":"address","internalType":"Currency"},{"name":"fee","type":"uint24","internalType":"uint24"},{"name":"tickSpacing","type":"int24","internalType":"int24"},{"name":"hooks","type":"address","internalType":"contract IHooks"}]},{"name":"sqrtPriceX96","type":"uint160","internalType":"uint160"}],"outputs":[{"name":"tick","type":"int24","internalType":"int24"}],"stateMutability":"nonpayable"},{"type":"function","name":"isOperator","inputs":[{"name":"owner","type":"address","internalType":"address"},{"name":"operator","type":"address","internalType":"address"}],"outputs":[{"name":"isOperator","type":"bool","internalType":"bool"}],"stateMutability":"view"},{"type":"function","name":"mint","inputs":[{"name":"to","type":"address","internalType":"address"},{"name":"id","type":"uint256","internalType":"uint256"},{"name":"amount","type":"uint256","internalType":"uint256"}],"outputs":[],"stateMutability":"nonpayable"},{"type":"function","name":"modifyLiquidity","inputs":[{"name":"key","type":"tuple","internalType":"struct PoolKey","components":[{"name":"currency0","type":"address","internalType":"Currency"},{"name":"currency1","type":"address","internalType":"Currency"},{"name":"fee","type":"uint24","internalType":"uint24"},{"name":"tickSpacing","type":"int24","internalType":"int24"},{"name":"hooks","type":"address","internalType":"contract IHooks"}]},{"name":"params","type":"tuple","internalType":"struct ModifyLiquidityParams","components":[{"name":"tickLower","type":"int24","internalType":"int24"},{"name":"tickUpper","type":"int24","internalType":"int24"},{"name":"liquidityDelta","type":"int256","internalType":"int256"},{"name":"salt","type":"bytes32","internalType":"bytes32"}]},{"name":"hookData","type":"bytes","internalType":"bytes"}],"outputs":[{"name":"callerDelta","type":"int256","internalType":"BalanceDelta"},{"name":"feesAccrued","type":"int256","internalType":"BalanceDelta"}],"stateMutability":"nonpayable"},{"type":"function","name":"owner","inputs":[],"outputs":[{"name":"","type":"address","internalType":"address"}],"stateMutability":"view"},{"type":"function","name":"protocolFeeController","inputs":[],"outputs":[{"name":"","type":"address","internalType":"address"}],"stateMutability":"view"},{"type":"function","name":"protocolFeesAccrued","inputs":[{"name":"currency","type":"address","internalType":"Currency"}],"outputs":[{"name":"amount","type":"uint256","internalType":"uint256"}],"stateMutability":"view"},{"type":"function","name":"setOperator","inputs":[{"name":"operator","type":"address","internalType":"address"},{"name":"approved","type":"bool","internalType":"bool"}],"outputs":[{"name":"","type":"bool","internalType":"bool"}],"stateMutability":"nonpayable"},{"type":"function","name":"setProtocolFee","inputs":[{"name":"key","type":"tuple","internalType":"struct PoolKey","components":[{"name":"currency0","type":"address","internalType":"Currency"},{"name":"currency1","type":"address","internalType":"Currency"},{"name":"fee","type":"uint24","internalType":"uint24"},{"name":"tickSpacing","type":"int24","internalType":"int24"},{"name":"hooks","type":"address","internalType":"contract IHooks"}]},{"name":"newProtocolFee","type":"uint24","internalType":"uint24"}],"outputs":[],"stateMutability":"nonpayable"},{"type":"function","name":"setProtocolFeeController","inputs":[{"name":"controller","type":"address","internalType":"address"}],"outputs":[],"stateMutability":"nonpayable"},{"type":"function","name":"settle","inputs":[],"outputs":[{"name":"","type":"uint256","internalType":"uint256"}],"stateMutability":"payable"},{"type":"function","name":"settleFor","inputs":[{"name":"recipient","type":"address","internalType":"address"}],"outputs":[{"name":"","type":"uint256","internalType":"uint256"}],"stateMutability":"payable"},{"type":"function","name":"supportsInterface","inputs":[{"name":"interfaceId","type":"bytes4","internalType":"bytes4"}],"outputs":[{"name":"","type":"bool","internalType":"bool"}],"stateMutability":"view"},{"type":"function","name":"swap","inputs":[{"name":"key","type":"tuple","internalType":"struct PoolKey","components":[{"name":"currency0","type":"address","internalType":"Currency"},{"name":"currency1","type":"address","internalType":"Currency"},{"name":"fee","type":"uint24","internalType":"uint24"},{"name":"tickSpacing","type":"int24","internalType":"int24"},{"name":"hooks","type":"address","internalType":"contract IHooks"}]},{"name":"params","type":"tuple","internalType":"struct SwapParams","components":[{"name":"zeroForOne","type":"bool","internalType":"bool"},{"name":"amountSpecified","type":"int256","internalType":"int256"},{"name":"sqrtPriceLimitX96","type":"uint160","internalType":"uint160"}]},{"name":"hookData","type":"bytes","internalType":"bytes"}],"outputs":[{"name":"swapDelta","type":"int256","internalType":"BalanceDelta"}],"stateMutability":"nonpayable"},{"type":"function","name":"sync","inputs":[{"name":"currency","type":"address","internalType":"Currency"}],"outputs":[],"stateMutability":"nonpayable"},{"type":"function","name":"take","inputs":[{"name":"currency","type":"address","internalType":"Currency"},{"name":"to","type":"address","internalType":"address"},{"name":"amount","type":"uint256","internalType":"uint256"}],"outputs":[],"stateMutability":"nonpayable"},{"type":"function","name":"transfer","inputs":[{"name":"receiver","type":"address","internalType":"address"},{"name":"id","type":"uint256","internalType":"uint256"},{"name":"amount","type":"uint256","internalType":"uint256"}],"outputs":[{"name":"","type":"bool","internalType":"bool"}],"stateMutability":"nonpayable"},{"type":"function","name":"transferFrom","inputs":[{"name":"sender","type":"address","internalType":"address"},{"name":"receiver","type":"address","internalType":"address"},{"name":"id","type":"uint256","internalType":"uint256"},{"name":"amount","type":"uint256","internalType":"uint256"}],"outputs":[{"name":"","type":"bool","internalType":"bool"}],"stateMutability":"nonpayable"},{"type":"function","name":"transferOwnership","inputs":[{"name":"newOwner","type":"address","internalType":"address"}],"outputs":[],"stateMutability":"nonpayable"},{"type":"function","name":"unlock","inputs":[{"name":"data","type":"bytes","internalType":"bytes"}],"outputs":[{"name":"result","type":"bytes","internalType":"bytes"}],"stateMutability":"nonpayable"},{"type":"function","name":"updateDynamicLPFee","inputs":[{"name":"key","type":"tuple","internalType":"struct PoolKey","components":[{"name":"currency0","type":"address","internalType":"Currency"},{"name":"currency1","type":"address","internalType":"Currency"},{"name":"fee","type":"uint24","internalType":"uint24"},{"name":"tickSpacing","type":"int24","internalType":"int24"},{"name":"hooks","type":"address","internalType":"contract IHooks"}]},{"name":"newDynamicLPFee","type":"uint24","internalType":"uint24"}],"outputs":[],"stateMutability":"nonpayable"},{"type":"event","name":"Approval","inputs":[{"name":"owner","type":"address","indexed":true,"internalType":"address"},{"name":"spender","type":"address","indexed":true,"internalType":"address"},{"name":"id","type":"uint256","indexed":true,"internalType":"uint256"},{"name":"amount","type":"uint256","indexed":false,"internalType":"uint256"}],"anonymous":false},{"type":"event","name":"Donate","inputs":[{"name":"id","type":"bytes32","indexed":true,"internalType":"PoolId"},{"name":"sender","type":"address","indexed":true,"internalType":"address"},{"name":"amount0","type":"uint256","indexed":false,"internalType":"uint256"},{"name":"amount1","type":"uint256","indexed":false,"internalType":"uint256"}],"anonymous":false},{"type":"event","name":"Initialize","inputs":[{"name":"id","type":"bytes32","indexed":true,"internalType":"PoolId"},{"name":"currency0","type":"address","indexed":true,"internalType":"Currency"},{"name":"currency1","type":"address","indexed":true,"internalType":"Currency"},{"name":"fee","type":"uint24","indexed":false,"internalType":"uint24"},{"name":"tickSpacing","type":"int24","indexed":false,"internalType":"int24"},{"name":"hooks","type":"address","indexed":false,"internalType":"contract IHooks"},{"name":"sqrtPriceX96","type":"uint160","indexed":false,"internalType":"uint160"},{"name":"tick","type":"int24","indexed":false,"internalType":"int24"}],"anonymous":false},{"type":"event","name":"ModifyLiquidity","inputs":[{"name":"id","type":"bytes32","indexed":true,"internalType":"PoolId"},{"name":"sender","type":"address","indexed":true,"internalType":"address"},{"name":"tickLower","type":"int24","indexed":false,"internalType":"int24"},{"name":"tickUpper","type":"int24","indexed":false,"internalType":"int24"},{"name":"liquidityDelta","type":"int256","indexed":false,"internalType":"int256"},{"name":"salt","type":"bytes32","indexed":false,"internalType":"bytes32"}],"anonymous":false},{"type":"event","name":"OperatorSet","inputs":[{"name":"owner","type":"address","indexed":true,"internalType":"address"},{"name":"operator","type":"address","indexed":true,"internalType":"address"},{"name":"approved","type":"bool","indexed":false,"internalType":"bool"}],"anonymous":false},{"type":"event","name":"OwnershipTransferred","inputs":[{"name":"user","type":"address","indexed":true,"internalType":"address"},{"name":"newOwner","type":"address","indexed":true,"internalType":"address"}],"anonymous":false},{"type":"event","name":"ProtocolFeeControllerUpdated","inputs":[{"name":"protocolFeeController","type":"address","indexed":true,"internalType":"address"}],"anonymous":false},{"type":"event","name":"ProtocolFeeUpdated","inputs":[{"name":"id","type":"bytes32","indexed":true,"internalType":"PoolId"},{"name":"protocolFee","type":"uint24","indexed":false,"internalType":"uint24"}],"anonymous":false},{"type":"event","name":"Swap","inputs":[{"name":"id","type":"bytes32","indexed":true,"internalType":"PoolId"},{"name":"sender","type":"address","indexed":true,"internalType":"address"},{"name":"amount0","type":"int128","indexed":false,"internalType":"int128"},{"name":"amount1","type":"int128","indexed":false,"internalType":"int128"},{"name":"sqrtPriceX96","type":"uint160","indexed":false,"internalType":"uint160"},{"name":"liquidity","type":"uint128","indexed":false,"internalType":"uint128"},{"name":"tick","type":"int24","indexed":false,"internalType":"int24"},{"name":"fee","type":"uint24","indexed":false,"internalType":"uint24"}],"anonymous":false},{"type":"event","name":"Transfer","inputs":[{"name":"caller","type":"address","indexed":false,"internalType":"address"},{"name":"from","type":"address","indexed":true,"internalType":"address"},{"name":"to","type":"address","indexed":true,"internalType":"address"},{"name":"id","type":"uint256","indexed":true,"internalType":"uint256"},{"name":"amount","type":"uint256","indexed":false,"internalType":"uint256"}],"anonymous":false},{"type":"error","name":"AlreadyUnlocked","inputs":[]},{"type":"error","name":"CurrenciesOutOfOrderOrEqual","inputs":[{"name":"currency0","type":"address","internalType":"address"},{"name":"currency1","type":"address","internalType":"address"}]},{"type":"error","name":"CurrencyNotSettled","inputs":[]},{"type":"error","name":"DelegateCallNotAllowed","inputs":[]},{"type":"error","name":"InvalidCaller","inputs":[]},{"type":"error","name":"ManagerLocked","inputs":[]},{"type":"error","name":"MustClearExactPositiveDelta","inputs":[]},{"type":"error","name":"NonzeroNativeValue","inputs":[]},{"type":"error","name":"PoolNotInitialized","inputs":[]},{"type":"error","name":"ProtocolFeeCurrencySynced","inputs":[]},{"type":"error","name":"ProtocolFeeTooLarge","inputs":[{"name":"fee","type":"uint24","internalType":"uint24"}]},{"type":"error","name":"SwapAmountCannotBeZero","inputs":[]},{"type":"error","name":"TickSpacingTooLarge","inputs":[{"name":"tickSpacing","type":"int24","internalType":"int24"}]},{"type":"error","name":"TickSpacingTooSmall","inputs":[{"name":"tickSpacing","type":"int24","internalType":"int24"}]},{"type":"error","name":"UnauthorizedDynamicLPFeeUpdate","inputs":[]}],"bytecode":{"object":"0x60a0604052348015600e575f80fd5b50604051615180380380615180833981016040819052602b91607f565b5f80546001600160a01b0319166001600160a01b038316908117825560405183928392917f8be0079c531659141344cd1fd0a4f28419497f9722a3daafe3b4186f6b6457e0908290a35050306080525060aa565b5f60208284031215608e575f80fd5b81516001600160a01b038116811460a3575f80fd5b9392505050565b6080516150be6100c25f395f6118be01526150be5ff3fe6080604052600436106101f4575f3560e01c80635a6bcfda11610117578063a5841194116100ac578063f135baaa1161007c578063f3cd914c11610062578063f3cd914c1461064f578063f5298aca1461066e578063fe99049a1461068d575f80fd5b8063f135baaa14610611578063f2fde38b14610630575f80fd5b8063a58411941461057b578063b6363cf21461059a578063dbd035ff146105d3578063f02de3b2146105f2575f80fd5b80638161b874116100e75780638161b874146104dc5780638da5cb5b146104fb57806397e8cd4e146105315780639bf6645f1461055c575f80fd5b80635a6bcfda146104385780636276cbbe1461046c5780637e87ce7d1461049e57806380f0b44c146104bd575f80fd5b80632d7713891161018d57806348c894911161015d57806348c894911461039257806352759651146103be578063558a7297146103dd578063598af9e7146103fc575f80fd5b80632d7713891461031557806335fd631a146103345780633dd45adb14610360578063426a849314610373575f80fd5b806311da60b4116101c857806311da60b4146102b0578063156e29f6146102b85780631e2eaeaf146102d7578063234266d7146102f6575f80fd5b8062fdd58e146101f857806301ffc9a714610241578063095bcdb6146102705780630b0d9c091461028f575b5f80fd5b348015610203575f80fd5b5061022e610212366004614357565b600460209081525f928352604080842090915290825290205481565b6040519081526020015b60405180910390f35b34801561024c575f80fd5b5061026061025b366004614381565b6106ac565b6040519015158152602001610238565b34801561027b575f80fd5b5061026061028a3660046143a8565b6106e2565b34801561029a575f80fd5b506102ae6102a93660046143da565b61079c565b005b61022e6107ed565b3480156102c3575f80fd5b506102ae6102d23660046143a8565b61081f565b3480156102e2575f80fd5b5061022e6102f1366004614418565b61086a565b348015610301575f80fd5b5061022e61031036600461459b565b610874565b348015610320575f80fd5b506102ae61032f366004614600565b610952565b34801561033f575f80fd5b5061035361034e36600461461b565b6109f5565b604051610238919061463b565b61022e61036e366004614600565b610a32565b34801561037e575f80fd5b5061026061038d3660046143a8565b610a64565b34801561039d575f80fd5b506103b16103ac36600461467d565b610ac8565b60405161023891906146bc565b3480156103c9575f80fd5b506102ae6103d83660046146f1565b610b9e565b3480156103e8575f80fd5b506102606103f7366004614732565b610c0d565b348015610407575f80fd5b5061022e6104163660046143da565b600560209081525f938452604080852082529284528284209052825290205481565b348015610443575f80fd5b5061045761045236600461475c565b610c7c565b60408051928352602083019190915201610238565b348015610477575f80fd5b5061048b6104863660046147ff565b610e1b565b60405160029190910b8152602001610238565b3480156104a9575f80fd5b506102ae6104b83660046146f1565b610ff3565b3480156104c8575f80fd5b506102ae6104d7366004614357565b6110a5565b3480156104e7575f80fd5b5061022e6104f63660046143da565b611112565b348015610506575f80fd5b505f54610519906001600160a01b031681565b6040516001600160a01b039091168152602001610238565b34801561053c575f80fd5b5061022e61054b366004614600565b60016020525f908152604090205481565b348015610567575f80fd5b50610353610576366004614835565b6111fa565b348015610586575f80fd5b506102ae610595366004614600565b611233565b3480156105a5575f80fd5b506102606105b43660046148a6565b600360209081525f928352604080842090915290825290205460ff1681565b3480156105de575f80fd5b506103536105ed366004614835565b61126f565b3480156105fd575f80fd5b50600254610519906001600160a01b031681565b34801561061c575f80fd5b5061022e61062b366004614418565b6112a6565b34801561063b575f80fd5b506102ae61064a366004614600565b6112b0565b34801561065a575f80fd5b5061022e6106693660046148d2565b61134f565b348015610679575f80fd5b506102ae6106883660046143a8565b611495565b348015610698575f80fd5b506102606106a7366004614972565b6114e0565b5f6301ffc9a760e01b6001600160e01b0319831614806106dc5750630f632fb360e01b6001600160e01b03198316145b92915050565b335f90815260046020908152604080832085845290915281208054839190839061070d9084906149c9565b90915550506001600160a01b0384165f908152600460209081526040808320868452909152812080548492906107449084906149dc565b909155505060408051338082526020820185905285926001600160a01b038816927f1b3d7edb2e9c0b0e7c525b20aaaef0f5940d2ed71663c7d39266ecafac72885991015b60405180910390a45060015b9392505050565b5f805160206150698339815191525c6107bf576107bf6354e3ca0d60e01b611652565b6107d4836107cc8361165a565b5f0333611686565b6107e86001600160a01b03841683836116d9565b505050565b5f5f805160206150698339815191525c610811576108116354e3ca0d60e01b611652565b61081a33611778565b905090565b5f805160206150698339815191525c610842576108426354e3ca0d60e01b611652565b81610850816107cc8461165a565b610864846001600160a01b0383168461182e565b50505050565b5f81545f5260205ff35b5f5f805160206150698339815191525c610898576108986354e3ca0d60e01b611652565b6108a06118b3565b60a086205f8181526006602052604090206108ba816118f5565b60808801516108d6906001600160a01b03168989898989611916565b6108e1818888611993565b92506108ee888433611a36565b6040805188815260208101889052339184917f29ef05caaff9404b7cb6d1c0e9bbae9eaa7ab2541feba1a9c4248594c08156cb910160405180910390a36080880151610947906001600160a01b03168989898989611a5e565b505095945050505050565b5f546001600160a01b0316331461099f5760405162461bcd60e51b815260206004820152600c60248201526b15539055551213d49256915160a21b60448201526064015b60405180910390fd5b6002805473ffffffffffffffffffffffffffffffffffffffff19166001600160a01b0383169081179091556040517fb4bd8ef53df690b9943d3318996006dbb82a25f54719d8c8035b516a2a5b8acc905f90a250565b6060604051808360051b6020835284602084015260408301925080830190505b85548352602083019250600186019550808310610a155781810382f35b5f5f805160206150698339815191525c610a5657610a566354e3ca0d60e01b611652565b6106dc82611778565b919050565b335f8181526005602090815260408083206001600160a01b03881680855290835281842087855290925280832085905551919285927fb3fd5071835887567a0671151121894ddccc2842f1d10bedad13e0d17cace9a7906107899087815260200190565b60605f805160206150698339815191525c15610aee57610aee6328486b6360e11b611652565b610af6611ad0565b6040516348eeb9a360e11b815233906391dd734690610b1b9086908690600401614a17565b5f604051808303815f875af1158015610b36573d5f803e3d5ffd5b505050506040513d5f823e601f3d908101601f19168201604052610b5d9190810190614a2a565b90507f7d4b3164c6e45b97e7d87b7125a44c5828d005af88f9d751cfd78729c5d99a0b5c15610b9657610b96635212cba160e01b611652565b6106dc611ae3565b604082015162ffffff1662800000141580610bcf575081608001516001600160a01b0316336001600160a01b031614155b15610be457610be46330d2164160e01b611652565b610bf28162ffffff16611af5565b60a082205f8181526006602052604090206107e89083611b1b565b335f8181526003602090815260408083206001600160a01b038716808552908352818420805460ff191687151590811790915591519182529293917fceb576d9f15e4e200fdb5096d64d5dfd667e16def20c1eefd14256d8e3faa267910160405180910390a350600192915050565b5f805f805160206150698339815191525c610ca157610ca16354e3ca0d60e01b611652565b610ca96118b3565b60a086205f818152600660205260409020610cc3816118f5565b6080880151610cde906001600160a01b031689898989611b5d565b5f610d456040518060c00160405280336001600160a01b031681526020018a5f015160020b81526020018a6020015160020b8152602001610d228b60400151611c5f565b600f0b81526060808d015160020b60208301528b01516040909101528390611c7b565b94509050610d538185611ffc565b94505050336001600160a01b0316817ff208f4912782fd25c7f114ca3723a2d5dd6f3bcc3ac8db5af63baa85f711d5ec885f015189602001518a604001518b60600151604051610dc49493929190600294850b81529290930b60208301526040820152606081019190915260800190565b60405180910390a360808701515f90610deb906001600160a01b0316898987878b8b61202f565b90945090508015610e0557610e0588828a60800151611a36565b610e10888533611a36565b505094509492505050565b5f610e246118b3565b6060830151617fff60029190910b1315610e4f576060830151610e4f906316e0049f60e31b90612154565b600160020b836060015160020b1215610e79576060830151610e7990631d3d20b160e31b90612154565b825160208401516001600160a01b03908116911610610eab5782516020840151610eab916306e6c98360e41b91612163565b610ecf836040015184608001516001600160a01b031661218c90919063ffffffff16565b610eea576080830151610eea90630732d7b560e51b9061224d565b5f610efd846040015162ffffff16612262565b6080850151909150610f19906001600160a01b03168585612287565b60a084205f818152600660205260409020610f359085846122f4565b925084602001516001600160a01b0316855f01516001600160a01b0316827fdd466e674ea557f56295e2d0218a125ea4b4f0f6f3307b95f85e6110838d6438886040015189606001518a608001518a8a604051610fc995949392919062ffffff959095168552600293840b60208601526001600160a01b03928316604086015291166060840152900b608082015260a00190565b60405180910390a46080850151610feb906001600160a01b0316868686612351565b505092915050565b6002546001600160a01b03163314611015576110156348f5c3ed60e01b611652565b6103e9610fff821610623e900062fff000831610166110445761104463a7abe2f760e01b62ffffff831661224d565b60a0822061106682611060835f90815260066020526040902090565b906123c0565b60405162ffffff8316815281907fe9c42593e71f84403b84352cd168d693e2c9fcd1fdbcc3feb21d92b43e6696f99060200160405180910390a2505050565b5f805160206150698339815191525c6110c8576110c86354e3ca0d60e01b611652565b335f9081526001600160a01b038316602052604081205c906110e98361165a565b90508181600f0b146111055761110563bda73abf60e01b611652565b61086484825f0333611686565b6002545f906001600160a01b03163314611136576111366348f5c3ed60e01b611652565b6001600160a01b0383161515801561117a57506001600160a01b037f27e098c505d44ec3574004bca052aabf76bd35004c182099d8c575fb238593b95c8116908416145b1561118f5761118f6318f3cb2960e31b611652565b811561119b57816111b4565b6001600160a01b0383165f908152600160205260409020545b6001600160a01b0384165f908152600160205260408120805492935083929091906111e09084906149c9565b9091555061079590506001600160a01b03841685836116d9565b606060405180602082528360208301526040820191508360051b8201855b80355c845260209384019301818410611218575b5081810382f35b6001600160a01b03811661124c57611249612414565b50565b5f61125f826001600160a01b0316612439565b905061126b82826124b5565b5050565b606060405180602082528360208301526040820191508360051b8201855b8035548452602093840193018184101561122c5761128d565b5f815c5f5260205ff35b5f546001600160a01b031633146112f85760405162461bcd60e51b815260206004820152600c60248201526b15539055551213d49256915160a21b6044820152606401610996565b5f805473ffffffffffffffffffffffffffffffffffffffff19166001600160a01b0383169081178255604051909133917f8be0079c531659141344cd1fd0a4f28419497f9722a3daafe3b4186f6b6457e09190a350565b5f5f805160206150698339815191525c611373576113736354e3ca0d60e01b611652565b61137b6118b3565b83602001515f036113965761139663be8b850760e01b611652565b60a085205f8181526006602052604090206113b0816118f5565b60808701515f90819081906113d1906001600160a01b03168b8b8b8b612508565b80935081955082945050505061144084866040518060a001604052808681526020018e6060015160020b81526020018d5f0151151581526020018d604001516001600160a01b031681526020018562ffffff168152508c5f0151611439578d60200151612624565b8d51612624565b60808b01519096505f925061146491506001600160a01b03168a8a888b8b88612702565b9095509050801561147e5761147e89828b60800151611a36565b611489898633611a36565b50505050949350505050565b5f805160206150698339815191525c6114b8576114b86354e3ca0d60e01b611652565b816114cc816114c68461165a565b33611686565b610864846001600160a01b03831684612823565b5f336001600160a01b0386161480159061151d57506001600160a01b0385165f90815260036020908152604080832033845290915290205460ff16155b1561158d576001600160a01b0385165f90815260056020908152604080832033845282528083208684529091529020545f19811461158b5761155f83826149c9565b6001600160a01b0387165f90815260056020908152604080832033845282528083208884529091529020555b505b6001600160a01b0385165f908152600460209081526040808320868452909152812080548492906115bf9084906149c9565b90915550506001600160a01b0384165f908152600460209081526040808320868452909152812080548492906115f69084906149dc565b9091555050604080513381526020810184905284916001600160a01b0380881692908916917f1b3d7edb2e9c0b0e7c525b20aaaef0f5940d2ed71663c7d39266ecafac728859910160405180910390a45060015b949350505050565b805f5260045ffd5b5f6f800000000000000000000000000000008210611682576116826393dafdf160e01b611652565b5090565b81600f0b5f0361169557505050565b5f806116ab6001600160a01b03861684866128e1565b91509150805f036116c3576116be61291a565b6116d2565b815f036116d2576116d2612968565b5050505050565b5f6001600160a01b03841661170e575f805f8085875af190508061170957611709835f633d2cec6f60e21b6129b6565b610864565b60405163a9059cbb60e01b81526001600160a01b038416600482015282602482015260205f6044835f895af13d15601f3d1160015f511416171691505f81525f60208201525f60408201525080610864576108648463a9059cbb60e01b633c9fd93960e21b6129b6565b5f7f27e098c505d44ec3574004bca052aabf76bd35004c182099d8c575fb238593b95c6001600160a01b0381166117b157349150611815565b34156117c7576117c7635876424f60e11b611652565b7f1e0745a7db1623981f0b2a5d4232364c00787266eb75ad546f190e6cebe9bd955c5f6117fc6001600160a01b038416612439565b905061180882826149c9565b9350611812612414565b50505b611828816118228461165a565b85611686565b50919050565b6001600160a01b0383165f908152600460209081526040808320858452909152812080548392906118609084906149dc565b9091555050604080513381526020810183905283916001600160a01b038616915f917f1b3d7edb2e9c0b0e7c525b20aaaef0f5940d2ed71663c7d39266ecafac72885991015b60405180910390a4505050565b306001600160a01b037f000000000000000000000000000000000000000000000000000000000000000016146118f3576118f36306c4a1c760e11b611652565b565b80546001600160a01b03165f036112495761124963486aa30760e01b611652565b85336001600160a01b0382161461198a57602087161561198a5761198833878787878760405160240161194e96959493929190614abe565b60408051601f198184030181529190526020810180516001600160e01b0316635b54587d60e11b1790526001600160a01b03891690612a2e565b505b50505050505050565b60038301545f906001600160801b03168082036119ba576119ba63a74f97ab60e01b611652565b6119e86119c68561165a565b5f036119d18561165a565b5f0360809190911b6001600160801b039091161790565b91508315611a0c576001850180546001600160801b038316600160801b8702040190555b8215611a2e576002850180546001600160801b038316600160801b8602040190555b509392505050565b8251611a4c90611a468460801d90565b83611686565b6107e88360200151611a4684600f0b90565b85336001600160a01b0382161461198a57601087161561198a57611988338787878787604051602401611a9696959493929190614abe565b60408051601f198184030181529190526020810180516001600160e01b031663e1b4af6960e01b1790526001600160a01b03891690612a2e565b60015f805160206150698339815191525d565b5f5f805160206150698339815191525d565b620f424062ffffff8216111561124957611249631400211360e01b62ffffff831661224d565b611b24826118f5565b81547fffffff000000ffffffffffffffffffffffffffffffffffffffffffffffffffff1662ffffff60d01b60d083901b16175b90915550565b84336001600160a01b03821614611c57575f8460400151138015611b845750610800861615155b15611be557611bdf3386868686604051602401611ba5959493929190614b56565b60408051601f198184030181529190526020810180516001600160e01b031663259982e560e01b1790526001600160a01b03881690612a2e565b50611c57565b5f846040015113158015611bfc5750610200861615155b15611c575761198a3386868686604051602401611c1d959493929190614b56565b60408051601f198184030181529190526020810180516001600160e01b031663021d0ee760e41b1790526001600160a01b03881690612a2e565b505050505050565b80600f81900b8114610a5f57610a5f6393dafdf160e01b611652565b6060810151602082015160408301515f9283929091611c9a8282612ac8565b604080516080810182525f80825260208201819052918101829052606081019190915283600f0b5f14611ddd57611cd38884865f612b28565b6001600160801b0316602083015215158152611cf28883866001612b28565b6001600160801b03166060830152151560408201525f600f85900b12611da25760808701515f9060020b620d89e71981810783139082900503620d89e891909105036001016001600160801b03049050806001600160801b031682602001516001600160801b03161115611d7157611d7163b8e3c38560e01b85612154565b806001600160801b031682606001516001600160801b03161115611da057611da063b8e3c38560e01b84612154565b505b805115611dbe576080870151611dbe9060058a01908590612be9565b806040015115611ddd576080870151611ddd9060058a01908490612be9565b5f80611dea8a8686612c3b565b8a5160a08c015160408051602681019290925260068083018a9052600383018b9052928252603a600c8301205f838301819052602080850182905293819052908152928f01909152812092945090925080611e47838a8787612cef565b91509150611e73611e578361165a565b611e608361165a565b6001600160801b031660809190911b1790565b995050505050505f84600f0b1215611edc57805115611eaf57600283810b5f90815260048a016020526040812081815560018101829055909101555b806040015115611edc57600282810b5f90815260048a016020526040812081815560018101829055909101555b5082600f0b5f14611ff25786545f80611ef88360a01c60020b90565b6001600160a01b038416915091508460020b8260020b1215611f4757611f40611f3a611f35611f2688612db1565b611f2f88612db1565b8a613069565b611c5f565b60801b90565b9750611fee565b8360020b8260020b1215611fc957611f7e611f68611f3583611f2f88612db1565b611e60611f35611f7789612db1565b858b6130a1565b60038b0154909850611f99906001600160801b0316876130cd565b60038b0180546fffffffffffffffffffffffffffffffff19166001600160801b0392909216919091179055611fee565b611feb5f611e60611f35611fdc89612db1565b611fe589612db1565b8b6130a1565b97505b5050505b5050509250929050565b5f608082811d9084901d01600f83810b9085900b0161202661201d83611c5f565b611e6083611c5f565b95945050505050565b5f806001600160a01b038916330361204b57508490505f612148565b8591505f876040015113156120da576104008916156120d5576120c6338989898989896040516024016120849796959493929190614c04565b60408051601f198184030181529190526020810180516001600160e01b03166327c18fbf60e21b17905260028b1615155b6001600160a01b038c1691906130f4565b90506120d28282613135565b91505b612148565b61010089161561214857612139338989898989896040516024016121049796959493929190614c04565b60408051601f198184030181529190526020810180516001600160e01b0316633615df3f60e11b17905260018b1615156120b5565b90506121458282613135565b91505b97509795505050505050565b815f528060020b60045260245ffd5b6040518381526001600160a01b03831660048201526001600160a01b0382166024820152604481fd5b5f608083161580156121a057506008831615155b156121ac57505f6106dc565b604083161580156121bf57506004831615155b156121cb57505f6106dc565b61040083161580156121df57506002831615155b156121eb57505f6106dc565b61010083161580156121ff57506001831615155b1561220b57505f6106dc565b6001600160a01b0383161561223c57613fff831615158061223757506280000062ffffff831614610795565b610795565b5062ffffff16628000001415919050565b815f526001600160a01b03811660045260245ffd5b5f6280000062ffffff83160361227957505f919050565b6116828262ffffff16611af5565b82336001600160a01b0382161461086457612000841615610864576116d23384846040516024016122ba93929190614cc0565b60408051601f198184030181529190526020810180516001600160e01b0316636e4c1aa760e11b1790526001600160a01b03861690612a2e565b82545f906001600160a01b03161561231657612316637983c05160e01b611652565b61231f83613156565b905062ffffff60d01b60d083901b166001600160a01b03841660a083901b62ffffff60a01b1617179093555090919050565b83336001600160a01b038216146116d2576110008516156116d257611c57338585856040516024016123869493929190614d42565b60408051601f198184030181529190526020810180516001600160e01b0316636fe7e6eb60e01b1790526001600160a01b03871690612a2e565b6123c9826118f5565b81547fffffffffffff000000ffffffffffffffffffffffffffffffffffffffffffffff1679ffffff000000000000000000000000000000000000000000000060b883901b1617611b57565b5f7f27e098c505d44ec3574004bca052aabf76bd35004c182099d8c575fb238593b95d565b5f6001600160a01b03821661244f575047919050565b6040516370a0823160e01b81523060048201526001600160a01b038316906370a0823190602401602060405180830381865afa158015612491573d5f803e3d5ffd5b505050506040513d601f19601f820116820180604052508101906106dc9190614dcf565b6001600160a01b0382167f27e098c505d44ec3574004bca052aabf76bd35004c182099d8c575fb238593b95d807f1e0745a7db1623981f0b2a5d4232364c00787266eb75ad546f190e6cebe9bd955d5050565b60208301515f806001600160a01b0388163303612527575f9150612619565b6080881615612619575f61257d89338a8a8a8a60405160240161254e959493929190614de6565b60408051601f198184030181529190526020810180516001600160e01b03166315d7892d60e21b179052612a2e565b9050805160601461259857612598631e048e1d60e01b611652565b604088015162ffffff1662800000036125b357606081015191505b600889161561261757604081015192505f6125ce8460801d90565b905080600f0b5f14612615575f85126125eb600f83900b87614e8d565b9550806125fa575f86126125fe565b5f86135b1561261357612613637d05b8eb60e11b611652565b505b505b505b955095509592505050565b5f8080808061263389886133f3565b93509350935093505f831115612661576001600160a01b0386165f9081526001602052604090208054840190555b33887f40e9cecb9f5f1f1c5b9c97dec2917b7ee92e57ba5563708daca94dd84ad7112f61268e8760801d90565b61269888600f0b90565b85516040808801516020808a01518351600f97880b81529590960b908501526001600160a01b03909216908301526001600160801b0316606082015260029190910b608082015262ffffff861660a082015260c00160405180910390a35091979650505050505050565b5f806001600160a01b038916330361271e57508490505f612148565b5f6127298460801d90565b90505f61273685600f0b90565b905060408b16156127b0576127a3611f35338c8c8c8c8c60405160240161276296959493929190614eac565b60408051601f198184030181529190526020810180516001600160e01b031663b47b2fb160e01b17905260048e1615156001600160a01b038f1691906130f4565b6127ad9082614f5a565b90505b5f81600f0b5f1415806127c6575082600f0b5f14155b1561281157895160208b01515f13901515146127f1576001600160801b038316608083901b17612802565b6001600160801b038216608084901b175b905061280e8982613135565b98505b979b979a509698505050505050505050565b336001600160a01b038416811480159061286257506001600160a01b038085165f9081526003602090815260408083209385168352929052205460ff16155b156128d6576001600160a01b038085165f9081526005602090815260408083209385168352928152828220868352905220545f1981146128d4576128a683826149c9565b6001600160a01b038087165f9081526005602090815260408083209387168352928152828220888352905220555b505b610864848484613a8f565b6001600160a01b038281165f90815290841660205260408120805c919061290c600f85900b84614e8d565b915081815d50935093915050565b7f7d4b3164c6e45b97e7d87b7125a44c5828d005af88f9d751cfd78729c5d99a0b5c600181039050807f7d4b3164c6e45b97e7d87b7125a44c5828d005af88f9d751cfd78729c5d99a0b5d50565b7f7d4b3164c6e45b97e7d87b7125a44c5828d005af88f9d751cfd78729c5d99a0b5c600181019050807f7d4b3164c6e45b97e7d87b7125a44c5828d005af88f9d751cfd78729c5d99a0b5d50565b6040516390bfb86560e01b8082526001600160a01b03851660048301526001600160e01b031984166024830152608060448301526020601f3d018190040260a0810160648401523d608484015290913d5f60a483013e60048260a4018201526001600160e01b031984168260c4018201528160e40181fd5b60605f805f8451602086015f885af1905080612a5e57612a5e84612a5185614f99565b63a9e35b2f60e01b6129b6565b6040519150601f19603f3d011682016040523d82523d5f602084013e602082511080612aac575060208301516001600160e01b031916612a9f836020015190565b6001600160e01b03191614155b15612ac157612ac1631e048e1d60e01b611652565b5092915050565b8060020b8260020b12612ae757612ae763c4433ed560e01b8383613b0b565b620d89e719600283900b1215612b0857612b0863d5e2f7ab60e01b83612154565b620d89e8600282900b131561126b5761126b63035aeeff60e31b82612154565b600283900b5f908152600485016020526040812080548291906001600160801b03811690600160801b9004600f0b612b6082886130cd565b6001600160801b03808216159084168015919091141596509094505f03612baa57885460a01c60020b60020b8860020b13612baa576001808a0154908401556002808a0154908401555b5f86612bbf57612bba8883614f5a565b612bc9565b612bc98883614fd7565b90508060801b6001600160801b0386161784555050505094509492505050565b600291820b910b80820715612c165760405163d4d8f3e681528260208201528160408201526044601c8201fd5b80820591508160081d5f528260205260405f20600160ff84161b815418815550505050565b600282810b5f81815260048601602052604080822085850b83529082208754929485949293919260a09290921c900b90811215612c91578160010154836001015403945081600201548360020154039350612ce4565b8560020b8160020b12612cbd578260010154826001015403945082600201548260020154039350612ce4565b81600101548360010154896001015403039450816002015483600201548960020154030393505b505050935093915050565b83545f9081906001600160801b0316600f86900b8203612d2e57806001600160801b03165f03612d2957612d29632bbfae4960e21b611652565b612d5d565b612d3881876130cd565b87546fffffffffffffffffffffffffffffffff19166001600160801b03919091161787555b612d7b87600101548603826001600160801b0316600160801b613b28565b9250612d9b87600201548503826001600160801b0316600160801b613b28565b6001880195909555505060029094015591929050565b60020b5f60ff82901d80830118620d89e8811115612dda57612dda6345c3193d60e11b84612154565b7001fffcb933bd6fad37aa2d162d1a5940016001821602600160801b186002821615612e16576ffff97272373d413259a46990580e213a0260801c5b6004821615612e35576ffff2e50f5f656932ef12357cf3c7fdcc0260801c5b6008821615612e54576fffe5caca7e10e4e61c3624eaa0941cd00260801c5b6010821615612e73576fffcb9843d60f6159c9db58835c9266440260801c5b6020821615612e92576fff973b41fa98c081472e6896dfb254c00260801c5b6040821615612eb1576fff2ea16466c96a3843ec78b326b528610260801c5b6080821615612ed0576ffe5dee046a99a2a811c461f1969c30530260801c5b610100821615612ef0576ffcbe86c7900a88aedcffc83b479aa3a40260801c5b610200821615612f10576ff987a7253ac413176f2b074cf7815e540260801c5b610400821615612f30576ff3392b0822b70005940c7a398e4b70f30260801c5b610800821615612f50576fe7159475a2c29b7443b29c7fa6e889d90260801c5b611000821615612f70576fd097f3bdfd2022b8845ad8f792aa58250260801c5b612000821615612f90576fa9f746462d870fdf8a65dc1f90e061e50260801c5b614000821615612fb0576f70d869a156d2a1b890bb3df62baf32f70260801c5b618000821615612fd0576f31be135f97d08fd981231505542fcfa60260801c5b62010000821615612ff1576f09aa508b5b7a84e1c677de54f3e99bc90260801c5b62020000821615613011576e5d6af8dedb81196699c329225ee6040260801c5b62040000821615613030576d2216e584f5fa1ea926041bedfe980260801c5b6208000082161561304d576b048a170391f7dc42444e8fa20260801c5b5f841315613059575f19045b63ffffffff0160201c9392505050565b5f8082600f0b12613090576130896130848585856001613bc4565b613c99565b5f0361164a565b61164a6130848585855f035f613bc4565b5f8082600f0b126130bc576130896130848585856001613cb2565b61164a6130848585855f035f613cb2565b6001600160801b038216600f82900b01608081901c156106dc576393dafdf15f526004601cfd5b5f806131008585612a2e565b905082613110575f915050610795565b805160401461312957613129631e048e1d60e01b611652565b60400151949350505050565b5f608082811d9084901d03600f83810b9085900b0361202661201d83611c5f565b5f73fffd8963efd1fc6a506488495d951d51639616826401000276a21983016001600160a01b03161115613195576131956318521d4960e21b8361224d565b77ffffffffffffffffffffffffffffffffffffffff00000000602083901b16805f6131bf82613cfe565b60ff169050608081106131da57607f810383901c91506131e4565b80607f0383901b91505b908002607f81811c60ff83811c9190911c800280831c81831c1c800280841c81841c1c800280851c81851c1c800280861c81861c1c800280871c81871c1c800280881c81881c1c800280891c81891c1c8002808a1c818a1c1c8002808b1c818b1c1c8002808c1c818c1c1c8002808d1c818d1c1c8002808e1c9c81901c9c909c1c80029c8d901c9e9d607f198f0160401b60c09190911c678000000000000000161760c19b909b1c674000000000000000169a909a1760c29990991c672000000000000000169890981760c39790971c671000000000000000169690961760c49590951c670800000000000000169490941760c59390931c670400000000000000169290921760c69190911c670200000000000000161760c79190911c670100000000000000161760c89190911c6680000000000000161760c99190911c6640000000000000161760ca9190911c6620000000000000161760cb9190911c6610000000000000161760cc9190911c6608000000000000161760cd9190911c66040000000000001617693627a301d71055774c8581026f028f6481ab7f045a5af012a19d003aa9198101608090811d906fdb2df09e81959a81455e260799a0632f8301901d600281810b9083900b146133e457886001600160a01b03166133c982612db1565b6001600160a01b031611156133de57816133e6565b806133e6565b815b9998505050505050505050565b604080516060810182525f8082526020820181905291810182905281908190855460408601515f8161342d57610fff60c484901c16613437565b610fff60b884901c165b88516001600160a01b038516865261ffff9190911691505f60a085901c60020b60020b602087015260038b01546001600160801b0316604087015260808a01515f9062400000166134915760d086901c62ffffff166134a3565b6134a38b6080015162ffffff16613d89565b905083156134c957620f4240610fff851662ffffff8316818102929092049101036134cb565b805b975050620f42408762ffffff16106134f65789515f12156134f6576134f6634b10312360e11b611652565b89515f0361350e575f80985098505050505050613a86565b831561358b5760608a01516001600160a01b0386811691161061354d5761354d6001600160a01b0386165b60608c0151637c9c6e8f60e01b9190612163565b6401000276a36001600160a01b03168a606001516001600160a01b0316116135865760608a015161358690639e4d7cc760e01b9061224d565b6135fc565b60608a01516001600160a01b038681169116116135b4576135b46001600160a01b038616613539565b73fffd8963efd1fc6a506488495d951d5263988d266001600160a01b03168a606001516001600160a01b0316106135fc5760608a01516135fc90639e4d7cc760e01b9061224d565b60408051610100810182525f80825260208201819052918101829052606081018290526080810182905260a0810182905260c0810182905260e08101919091528461364b578b60020154613651565b8b600101545b60e08201525b82158061367c57508a606001516001600160a01b0316875f01516001600160a01b0316145b61395c5786516001600160a01b03168152602080880151908c01516136a69160058f019188613d98565b1515604083015260020b60208201819052620d89e719126136cc57620d89e71960208201525b620d89e860020b816020015160020b126136ea57620d89e860208201525b6136f78160200151612db1565b6001600160a01b0390811660608381018290528951908e0151613734939192911680821891811160018a161891909102188960400151868c613e85565b60c085015260a084015260808301526001600160a01b031687528a515f1215613790576137648160a00151613c99565b8303925061377f8160c00151826080015161308491906149dc565b6137899083615016565b91506137c1565b6137a38160c00151826080015101613c99565b830192506137b48160a00151613c99565b6137be9083614e8d565b91505b8315613810575f848962ffffff16146137f857620f4240858360c0015184608001510102816137f2576137f2615035565b046137fe565b8160c001515b60c08301805182900390529990990198505b60408701516001600160801b031615613850576138448160c00151600160801b89604001516001600160801b031691020490565b60e08201805190910190525b80606001516001600160a01b0316875f01516001600160a01b03160361393657806040015115613911575f8086613890578d600101548360e0015161389b565b8260e001518e600201545b915091505f6138e68f85602001518585600292830b5f90815260049094016020526040909320600181018054909203909155908101805490920390915554600160801b9004600f0b90565b905087156138f1575f035b6138ff8a60400151826130cd565b6001600160801b031660408b01525050505b84613920578060200151613929565b60018160200151035b60020b6020880152613657565b805187516001600160a01b0390811691161461395757865161392990613156565b613657565b865160208801516139c891906139a290899060a01b62ffffff60a01b167fffffffffffffffffff000000ffffffffffffffffffffffffffffffffffffffff919091161790565b73ffffffffffffffffffffffffffffffffffffffff19166001600160a01b039091161790565b8c55604087015160038d01546001600160801b03908116911614613a1657604087015160038d0180546fffffffffffffffffffffffffffffffff19166001600160801b039092169190911790555b84613a2a5760e081015160028d0155613a35565b60e081015160018d01555b8a515f1385151514613a6257613a5b613a4d83611c5f565b611e60858e5f015103611c5f565b9950613a7f565b613a7c613a73848d5f015103611c5f565b611e6084611c5f565b99505b5050505050505b92959194509250565b6001600160a01b0383165f90815260046020908152604080832085845290915281208054839290613ac19084906149c9565b9091555050604080513381526020810183905283915f916001600160a01b038716917f1b3d7edb2e9c0b0e7c525b20aaaef0f5940d2ed71663c7d39266ecafac72885991016118a6565b6040518381528260020b60048201528160020b6024820152604481fd5b5f838302815f1985870982811083820303915050808411613b47575f80fd5b805f03613b5957508290049050610795565b5f848688095f868103871696879004966002600389028118808a02820302808a02820302808a02820302808a02820302808a02820302808a02909103029181900381900460010186841190950394909402919094039290920491909117919091029150509392505050565b5f836001600160a01b0316856001600160a01b03161115613be3579293925b6001600160a01b038516613bfd5762bfc9215f526004601cfd5b7bffffffffffffffffffffffffffffffff000000000000000000000000606084901b166001600160a01b038686031683613c6257866001600160a01b0316613c4f8383896001600160a01b0316613b28565b81613c5c57613c5c615035565b04613c8e565b613c8e613c798383896001600160a01b0316613fe8565b886001600160a01b0316808204910615150190565b979650505050505050565b805f811215610a5f57610a5f6393dafdf160e01b611652565b5f6001600160a01b038481169086160360ff81901d90810118600160601b6001600160801b038516613ce5818484613b28565b9350845f83858409111684019350505050949350505050565b5f808211613d0a575f80fd5b507f0706060506020500060203020504000106050205030304010505030400000000601f6f8421084210842108cc6318c6db6d54be6001600160801b03841160071b84811c67ffffffffffffffff1060061b1784811c63ffffffff1060051b1784811c61ffff1060041b1784811c60ff1060031b1793841c1c161a1790565b62bfffff8116610a5f81611af5565b5f80600284810b9086900b8181078313919005038315613e1757600281900b60081d600181900b5f908152602089905260409020545f1960ff808516908190039190911c918216801515955090919085613df957888360ff16860302613e0c565b88613e0382613cfe565b840360ff168603025b965050505050613e7b565b6001908101600281900b60081d80830b5f90815260208a905260409020545f1960ff841694851b011990811680151595509293919285613e6157888360ff0360ff16860102613e74565b8883613e6c83614018565b0360ff168601025b9650505050505b5094509492505050565b5f80808062ffffff85166001600160a01b03808a16908b1610158288128015613f5b575f613ebe8a5f0385620f424003620f4240613b28565b905082613ed757613ed28d8d8d6001613cb2565b613ee4565b613ee48c8e8d6001613bc4565b9650868110613f18578b9750620f42408414613f0f57613f0a878586620f424003613fe8565b613f11565b865b9450613f31565b809650613f278d8c83866140b2565b9750868a5f030394505b82613f4757613f428d898d5f613bc4565b613f53565b613f53888e8d5f613cb2565b955050613fd9565b81613f7157613f6c8c8c8c5f613bc4565b613f7d565b613f7d8b8d8c5f613cb2565b9450848910613f8e578a9650613fa0565b889450613f9d8c8b8785614100565b96505b81613fb757613fb28c888c6001613cb2565b613fc4565b613fc4878d8c6001613bc4565b9550613fd6868485620f424003613fe8565b93505b50505095509550955095915050565b5f613ff4848484613b28565b9050818061400457614004615035565b838509156107955760010180610795575f80fd5b5f808211614024575f80fd5b507e1f0d1e100c1d070f090b19131c1706010e11080a1a141802121b15031604055f8290039091166101e07f804040554300526644320000502061067405302602000010750620017611707760fc7fb6db6db6ddddddddd34d34d349249249210842108c6318c639ce739cffffffff840260f81c161b60f71c1690811c63d76453e004601f169190911a1790565b5f6001600160801b038416156001600160a01b0386161517156140dc57634f2461b85f526004601cfd5b816140f3576140ee8585856001614143565b612026565b612026858585600161422e565b5f6001600160801b038416156001600160a01b03861615171561412a57634f2461b85f526004601cfd5b8161413b576140ee8585855f61422e565b6120268585855f5b5f81156141b3575f6001600160a01b038411156141775761417284600160601b876001600160801b0316613b28565b61418e565b61418e6001600160801b038616606086901b615049565b90506141ab6141a6826001600160a01b0389166149dc565b614322565b91505061164a565b5f6001600160a01b038411156141e0576141db84600160601b876001600160801b0316613fe8565b6141fd565b6141fd606085901b6001600160801b038716808204910615150190565b9050806001600160a01b0387161161421c57634323a5555f526004601cfd5b6001600160a01b03861603905061164a565b5f825f0361423d57508361164a565b7bffffffffffffffffffffffffffffffff000000000000000000000000606085901b1682156142e1576001600160a01b0386168481029085828161428357614283615035565b04036142b3578181018281106142b1576142a783896001600160a01b031683613fe8565b935050505061164a565b505b506141ab81856142cc6001600160a01b038a1683615049565b6142d691906149dc565b808204910615150190565b6001600160a01b0386168481029085820414818311166143085763f5c787f15f526004601cfd5b8082036142a76141a6846001600160a01b038b1684613fe8565b806001600160a01b0381168114610a5f57610a5f6393dafdf160e01b611652565b6001600160a01b0381168114611249575f80fd5b5f8060408385031215614368575f80fd5b823561437381614343565b946020939093013593505050565b5f60208284031215614391575f80fd5b81356001600160e01b031981168114610795575f80fd5b5f805f606084860312156143ba575f80fd5b83356143c581614343565b95602085013595506040909401359392505050565b5f805f606084860312156143ec575f80fd5b83356143f781614343565b9250602084013561440781614343565b929592945050506040919091013590565b5f60208284031215614428575f80fd5b5035919050565b634e487b7160e01b5f52604160045260245ffd5b6040516080810167ffffffffffffffff811182821017156144665761446661442f565b60405290565b604051601f8201601f1916810167ffffffffffffffff811182821017156144955761449561442f565b604052919050565b803562ffffff81168114610a5f575f80fd5b8035600281900b8114610a5f575f80fd5b5f60a082840312156144d0575f80fd5b60405160a0810167ffffffffffffffff811182821017156144f3576144f361442f565b604052905080823561450481614343565b8152602083013561451481614343565b60208201526145256040840161449d565b6040820152614536606084016144af565b6060820152608083013561454981614343565b6080919091015292915050565b5f8083601f840112614566575f80fd5b50813567ffffffffffffffff81111561457d575f80fd5b602083019150836020828501011115614594575f80fd5b9250929050565b5f805f805f61010086880312156145b0575f80fd5b6145ba87876144c0565b945060a0860135935060c0860135925060e086013567ffffffffffffffff8111156145e3575f80fd5b6145ef88828901614556565b969995985093965092949392505050565b5f60208284031215614610575f80fd5b813561079581614343565b5f806040838503121561462c575f80fd5b50508035926020909101359150565b602080825282518282018190525f918401906040840190835b81811015614672578351835260209384019390920191600101614654565b509095945050505050565b5f806020838503121561468e575f80fd5b823567ffffffffffffffff8111156146a4575f80fd5b6146b085828601614556565b90969095509350505050565b602081525f82518060208401528060208501604085015e5f604082850101526040601f19601f83011684010191505092915050565b5f8060c08385031215614702575f80fd5b61470c84846144c0565b915061471a60a0840161449d565b90509250929050565b80358015158114610a5f575f80fd5b5f8060408385031215614743575f80fd5b823561474e81614343565b915061471a60208401614723565b5f805f80848603610140811215614771575f80fd5b61477b87876144c0565b94506080609f198201121561478e575f80fd5b50614797614443565b6147a360a087016144af565b81526147b160c087016144af565b602082015260e086013560408201526101008601356060820152925061012085013567ffffffffffffffff8111156147e7575f80fd5b6147f387828801614556565b95989497509550505050565b5f8060c08385031215614810575f80fd5b61481a84846144c0565b915060a083013561482a81614343565b809150509250929050565b5f8060208385031215614846575f80fd5b823567ffffffffffffffff81111561485c575f80fd5b8301601f8101851361486c575f80fd5b803567ffffffffffffffff811115614882575f80fd5b8560208260051b8401011115614896575f80fd5b6020919091019590945092505050565b5f80604083850312156148b7575f80fd5b82356148c281614343565b9150602083013561482a81614343565b5f805f808486036101208112156148e7575f80fd5b6148f187876144c0565b94506060609f1982011215614904575f80fd5b506040516060810167ffffffffffffffff811182821017156149285761492861442f565b60405261493760a08701614723565b815260c0860135602082015260e086013561495181614343565b6040820152925061010085013567ffffffffffffffff8111156147e7575f80fd5b5f805f8060808587031215614985575f80fd5b843561499081614343565b935060208501356149a081614343565b93969395505050506040820135916060013590565b634e487b7160e01b5f52601160045260245ffd5b818103818111156106dc576106dc6149b5565b808201808211156106dc576106dc6149b5565b81835281816020850137505f828201602090810191909152601f909101601f19169091010190565b602081525f61164a6020830184866149ef565b5f60208284031215614a3a575f80fd5b815167ffffffffffffffff811115614a50575f80fd5b8201601f81018413614a60575f80fd5b805167ffffffffffffffff811115614a7a57614a7a61442f565b614a8d601f8201601f191660200161446c565b818152856020838501011115614aa1575f80fd5b8160208401602083015e5f91810160200191909152949350505050565b6001600160a01b0387168152614b2560208201876001600160a01b0381511682526001600160a01b03602082015116602083015262ffffff6040820151166040830152606081015160020b60608301526001600160a01b0360808201511660808301525050565b8460c08201528360e08201526101206101008201525f614b4a610120830184866149ef565b98975050505050505050565b6001600160a01b0386168152614bbd60208201866001600160a01b0381511682526001600160a01b03602082015116602083015262ffffff6040820151166040830152606081015160020b60608301526001600160a01b0360808201511660808301525050565b8351600290810b60c08301526020850151900b60e0820152604084015161010082015260608401516101208201526101606101408201525f613c8e610160830184866149ef565b6001600160a01b0388168152614c6b60208201886001600160a01b0381511682526001600160a01b03602082015116602083015262ffffff6040820151166040830152606081015160020b60608301526001600160a01b0360808201511660808301525050565b8551600290810b60c08301526020870151900b60e08201526040860151610100820152606086015161012082015284610140820152836101608201526101a06101808201525f6133e66101a0830184866149ef565b6001600160a01b038416815260e08101614d2b60208301856001600160a01b0381511682526001600160a01b03602082015116602083015262ffffff6040820151166040830152606081015160020b60608301526001600160a01b0360808201511660808301525050565b6001600160a01b03831660c0830152949350505050565b6001600160a01b03851681526101008101614dae60208301866001600160a01b0381511682526001600160a01b03602082015116602083015262ffffff6040820151166040830152606081015160020b60608301526001600160a01b0360808201511660808301525050565b6001600160a01b03841660c08301528260020b60e083015295945050505050565b5f60208284031215614ddf575f80fd5b5051919050565b6001600160a01b0386168152614e4d60208201866001600160a01b0381511682526001600160a01b03602082015116602083015262ffffff6040820151166040830152606081015160020b60608301526001600160a01b0360808201511660808301525050565b8351151560c0820152602084015160e082015260408401516001600160a01b03166101008201526101406101208201525f613c8e610140830184866149ef565b8082018281125f831280158216821582161715610feb57610feb6149b5565b6001600160a01b0387168152614f1360208201876001600160a01b0381511682526001600160a01b03602082015116602083015262ffffff6040820151166040830152606081015160020b60608301526001600160a01b0360808201511660808301525050565b8451151560c0820152602085015160e082015260408501516001600160a01b0316610100820152836101208201526101606101408201525f614b4a610160830184866149ef565b600f81810b9083900b016f7fffffffffffffffffffffffffffffff81136f7fffffffffffffffffffffffffffffff19821217156106dc576106dc6149b5565b805160208201516001600160e01b0319811691906004821015614fd0576001600160e01b0319600483900360031b81901b82161692505b5050919050565b600f82810b9082900b036f7fffffffffffffffffffffffffffffff1981126f7fffffffffffffffffffffffffffffff821317156106dc576106dc6149b5565b8181035f831280158383131683831282161715612ac157612ac16149b5565b634e487b7160e01b5f52601260045260245ffd5b5f8261506357634e487b7160e01b5f52601260045260245ffd5b50049056fec090fc4683624cfc3884e9d8de5eca132f2d0ec062aff75d43c0465d5ceeab23a2646970667358221220a5fd66f7ac44f8fcb7251d9407bc2eddb40e2af639d869f111845b42ab5fdba464736f6c634300081a0033","linkReferences":{}},"methodIdentifiers":{"allowance(address,address,uint256)":"598af9e7","approve(address,uint256,uint256)":"426a8493","balanceOf(address,uint256)":"00fdd58e","burn(address,uint256,uint256)":"f5298aca","clear(address,uint256)":"80f0b44c","collectProtocolFees(address,address,uint256)":"8161b874","donate((address,address,uint24,int24,address),uint256,uint256,bytes)":"234266d7","extsload(bytes32)":"1e2eaeaf","extsload(bytes32,uint256)":"35fd631a","extsload(bytes32[])":"dbd035ff","exttload(bytes32)":"f135baaa","exttload(bytes32[])":"9bf6645f","initialize((address,address,uint24,int24,address),uint160)":"6276cbbe","isOperator(address,address)":"b6363cf2","mint(address,uint256,uint256)":"156e29f6","modifyLiquidity((address,address,uint24,int24,address),(int24,int24,int256,bytes32),bytes)":"5a6bcfda","owner()":"8da5cb5b","protocolFeeController()":"f02de3b2","protocolFeesAccrued(address)":"97e8cd4e","setOperator(address,bool)":"558a7297","setProtocolFee((address,address,uint24,int24,address),uint24)":"7e87ce7d","setProtocolFeeController(address)":"2d771389","settle()":"11da60b4","settleFor(address)":"3dd45adb","supportsInterface(bytes4)":"01ffc9a7","swap((address,address,uint24,int24,address),(bool,int256,uint160),bytes)":"f3cd914c","sync(address)":"a5841194","take(address,address,uint256)":"0b0d9c09","transfer(address,uint256,uint256)":"095bcdb6","transferFrom(address,address,uint256,uint256)":"fe99049a","transferOwnership(address)":"f2fde38b","unlock(bytes)":"48c89491","updateDynamicLPFee((address,address,uint24,int24,address),uint24)":"52759651"},"id":36}